:020000040000FA
:1000000060020020F9020000010300000303000069
:1000100005030000070300000903000000000000C2
:100020000000000000000000000000000B030000C2
:100030000D030000000000000F030000110300008A
:10004000130300001503000017030000190300004C
:100050001B0300001D0300001F030000210300001C
:1000600023030000250300002703000029030000EC
:100070002B0300002D0300002F03000031030000BC
:10008000330300003503000037030000390300008C
:100090003B0300003D0300003F030000410300005C
:1000A000430300004503000047030000490300002C
:1000B0004B0300004D0300004F03000051030000FC
:1000C00053030000550300005703000059030000CC
:1000D0005B0300005D0300005F030000610300009C
:1000E00063030000650300000000000067030000D8
:1000F000690300006B0300006D0300006F03000044
:100100007103000073030000750300007703000013
:100110000000000000000000790300007B030000E5
:100120007D0300007F0300008103000083030000C3
:100130008503000087030000890300008B03000093
:1001400000000000000000000000000000000000AF
:100150008D0300008F030000910300009303000053
:10016000000000000000000000000000000000008F
:10017000000000000000000000000000000000007F
:10018000000000000000000000000000000000006F
:10019000000000000000000000000000000000005F
:1001A000000000000000000000000000000000004F
:1001B0009503000097030000990300009B030000D3
:1001C0009D0300009F030000A1030000A3030000A3
:1001D000A5030000A7030000A9030000AB03000073
:1001E000AD030000AF030000B103000000000000F9
:1001F00000000000B3030000B5030000B7030000D7
:10020000B9030000BB030000000000000000000074
:10021000BD030000BF030000C1030000C3030000D2
:10022000C5030000C7030000C9030000CB030000A2
:10023000CD030000CF030000D1030000D303000072
:10024000D5030000D7030000D9030000DB03000042
:10025000DD030000DF030000E1030000E303000012
:10026000E5030000E7030000E903000000F002F8E6
:1002700000F02EF80AA090E8000C82448344AAF112
:100280000107DA4501D100F023F8AFF2090EBAE810
:100290000F0013F0010F18BFFB1A43F001031847BA
:1002A000A0040000B0040000002300240025002664
:1002B000103A28BF78C1FBD8520728BF30C148BFC9
:1002C0000B6070471FB500F035FA1FBD10B510BDAB
:1002D00000F09FF81146FFF7F5FF00F013FA00F069
:1002E000BDF803B4FFF7F2FF03BC00F0C5F800004F
:1002F0000138FDD1704700003F4880473F48004724
:10030000FEE7FEE7FEE7FEE7FEE7FEE7FEE7FEE7C5
:10031000FEE7FEE7FEE7FEE7FEE7FEE7FEE7FEE7B5
:10032000FEE7FEE7FEE7FEE7FEE7FEE7FEE7FEE7A5
:10033000FEE7FEE7FEE7FEE7FEE7FEE7FEE7FEE795
:10034000FEE7FEE7FEE7FEE7FEE7FEE7FEE7FEE785
:10035000FEE7FEE7FEE7FEE7FEE7FEE7FEE7FEE775
:10036000FEE7FEE7FEE7FEE7FEE7FEE7FEE7FEE765
:10037000FEE7FEE7FEE7FEE7FEE7FEE7FEE7FEE755
:10038000FEE7FEE7FEE7FEE7FEE7FEE7FEE7FEE745
:10039000FEE7FEE7FEE7FEE7FEE7FEE7FEE7FEE735
:1003A000FEE7FEE7FEE7FEE7FEE7FEE7FEE7FEE725
:1003B000FEE7FEE7FEE7FEE7FEE7FEE7FEE7FEE715
:1003C000FEE7FEE7FEE7FEE7FEE7FEE7FEE7FEE705
:1003D000FEE7FEE7FEE7FEE7FEE7FEE7FEE7FEE7F5
:1003E000FEE7FEE7FEE7FEE7FEE7000004480549FA
:1003F000034A054B704700006D0600006D020000C7
:1004000060000020600200206000002070477047FC
:100410007047754600F02CF8AE4605006946534615
:1004200020F00700854618B020B5FFF7DFFFBDE8D4
:1004300020404FF000064FF000074FF000084FF04B
:10044000000B21F00701AC46ACE8C009ACE8C009DC
:10045000ACE8C009ACE8C0098D46704710B5044649
:10046000AFF300802046BDE81040FFF73ABF000020
:10047000004870470000002001491820ABBEFEE78D
:1004800026000200704702F001031BB1D0F80034CF
:100490000B4302E0D0F800348B43C0F8003402F084
:1004A00002031BB1D0F820340B4302E0D0F8203413
:1004B0008B43C0F820347047F0B5002416E00125C6
:1004C000A5400D4085B1D0F8C45F67000326BE404B
:1004D000B543C0F8C45FD0F8C45F6700C2F34116EB
:1004E000BE403543C0F8C45F651CECB2082CE6DBA7
:1004F00002F001051DB1D0F800550D4302E0D0F81F
:1005000000558D43C0F8005502F002051DB1D0F82A
:1005100004550D4302E0D0F804558D43C0F804554E
:1005200002F004051DB1D0F808550D4302E0D0F8E3
:1005300008558D43C0F8085502F008051DB1D0F8E4
:1005400018550D4302E0D0F818558D43C0F81855E2
:1005500002F010051DB1D0F83C550D4302E0D0F873
:100560003C558D43C0F83C5503F001051DB1D0F852
:100570000C550D4302E0D0F80C558D43C0F80C55D6
:1005800003F002051DB1D0F810550D4302E0D0F87C
:1005900010558D43C0F8105503F004051DB1D0F877
:1005A00014550D4302E0D0F814558D43C0F814558E
:1005B00003F008051DB1D0F81C550D4302E0D0F83A
:1005C0001C558D43C0F81C5503F400751DB1D0F8BF
:1005D00044550D4302E0D0F844558D43C0F84455CE
:1005E00003F440751DB1D0F840550D4302E0D0F83A
:1005F00040558D43C0F840551BB9D0F828550D43E0
:1006000002E0D0F828558D43C0F82855F0BD30B52C
:1006100004460D460823012229462046FFF74CFFD9
:10062000012229462046FFF72EFF30BD002303EBB1
:100630008103C2507047000010B50121C0F30722AA
:10064000094B1A4402F0704242F00072C0F30723D3
:10065000054C2344C3F3130342EA4312C3B242EAF4
:100660008302116010BD000000E60F401B490968BD
:1006700041F47001194A116019491A4A11671A495F
:1006800011661A4911661A491167002000E0401CE2
:10069000B0F57A7FFBD31749124A116616491167E4
:1006A000002000E0401CB0F57A7FFBD313490D4ACF
:1006B000116600BF0B49096D01F040014029F9D1D5
:1006C0000F49084A11664FF0C0711167002000E021
:1006D000401C42F210718842FAD3704788ED00E066
:1006E0001028800700E00F40D13A8E07422D9E016E
:1006F00000288001420D9E0100088001420DDE01AC
:100700004205DE010848FFF797FF02210748FFF77F
:100710007EFF07E0022211460448FFF787FF0448E6
:10072000FFF7E6FDF6E70000050800F00050024084
:1007300040420F004FF04070E1EE100A7047000099
:10074000500700000000002060020000A802000026
:040000050000026D88
:00000001FF
