:020000040000FA
:1000000070020020150300001D0300001F03000004
:10001000210300002303000025030000000000006E
:1000200000000000000000000000000027030000A6
:1000300029030000000000002B0300002D03000036
:100040002F030000310300003303000035030000DC
:1000500037030000390300003B0300003D030000AC
:100060003F0300004103000043030000450300007C
:1000700047030000490300004B0300004D0300004C
:100080004F0300005103000053030000550300001C
:1000900057030000590300005B0300005D030000EC
:1000A0005F030000610300006303000065030000BC
:1000B00067030000690300006B0300006D0300008C
:1000C0006F0300007103000073030000750300005C
:1000D00077030000790300007B0300007D0300002C
:1000E0007F03000081030000000000008303000084
:1000F0008503000087030000890300008B030000D4
:100100008D0300008F0300009103000093030000A3
:1001100000000000000000009503000097030000AD
:10012000990300009B0300009D0300009F03000053
:10013000A1030000A3030000A5030000A703000023
:1001400000000000000000000000000000000000AF
:10015000A9030000AB030000AD030000AF030000E3
:10016000000000000000000000000000000000008F
:10017000000000000000000000000000000000007F
:10018000000000000000000000000000000000006F
:10019000000000000000000000000000000000005F
:1001A000000000000000000000000000000000004F
:1001B000B1030000B3030000B5030000B703000063
:1001C000B9030000BB030000BD030000BF03000033
:1001D000C1030000C3030000C5030000C703000003
:1001E000C9030000CB030000CD03000000000000A5
:1001F00000000000CF030000D1030000D303000083
:10020000D5030000D703000000000000000000003C
:10021000D9030000DB030000DD030000DF03000062
:10022000E1030000E3030000E5030000E703000032
:10023000E9030000EB030000ED030000EF03000002
:10024000F1030000F3030000F5030000F7030000D2
:10025000F9030000FB030000FD030000FF030000A2
:1002600001040000030400000504000000F002F88F
:1002700000F03CF80AA090E8000C82448344AAF104
:100280000107DA4501D100F031F8AFF2090EBAE802
:100290000F0013F0010F18BFFB1A43F001031847BA
:1002A000C4160000E4160000103A24BF78C878C1D4
:1002B000FAD8520724BF30C830C144BF04680C606C
:1002C000704700000023002400250026103A28BFB4
:1002D00078C1FBD8520728BF30C148BF0B607047B8
:1002E0001FB501F0FCF81FBD10B510BD00F09FF860
:1002F0001146FFF7F5FF00F0A5FC00F0BDF803B4D0
:10030000FFF7F2FF03BC00F0C5F800000138FDD193
:10031000704700003F4880473F480047FEE7FEE740
:10032000FEE7FEE7FEE7FEE7FEE7FEE7FEE7FEE7A5
:10033000FEE7FEE7FEE7FEE7FEE7FEE7FEE7FEE795
:10034000FEE7FEE7FEE7FEE7FEE7FEE7FEE7FEE785
:10035000FEE7FEE7FEE7FEE7FEE7FEE7FEE7FEE775
:10036000FEE7FEE7FEE7FEE7FEE7FEE7FEE7FEE765
:10037000FEE7FEE7FEE7FEE7FEE7FEE7FEE7FEE755
:10038000FEE7FEE7FEE7FEE7FEE7FEE7FEE7FEE745
:10039000FEE7FEE7FEE7FEE7FEE7FEE7FEE7FEE735
:1003A000FEE7FEE7FEE7FEE7FEE7FEE7FEE7FEE725
:1003B000FEE7FEE7FEE7FEE7FEE7FEE7FEE7FEE715
:1003C000FEE7FEE7FEE7FEE7FEE7FEE7FEE7FEE705
:1003D000FEE7FEE7FEE7FEE7FEE7FEE7FEE7FEE7F5
:1003E000FEE7FEE7FEE7FEE7FEE7FEE7FEE7FEE7E5
:1003F000FEE7FEE7FEE7FEE7FEE7FEE7FEE7FEE7D5
:10040000FEE7FEE7FEE7000004480549034A054B06
:1004100070470000AD0B00006D020000700000206E
:1004200070020020700000207047704770477546CA
:1004300000F02CF8AE4605006946534620F0070050
:10044000854618B020B5FFF7DFFFBDE820404FF02C
:1004500000064FF000074FF000084FF0000B21F0AE
:100460000701AC46ACE8C009ACE8C009ACE8C0097B
:10047000ACE8C0098D46704710B50446AFF3008064
:100480002046BDE81040FFF73ABF00000048704723
:100490000C00002001491820ABBEFEE72600020038
:1004A000704702F001031BB1D0F800340B4302E0A7
:1004B000D0F800348B43C0F8003402F002031BB1C3
:1004C000D0F820340B4302E0D0F820348B43C0F83E
:1004D00020347047F0B5002416E00125A5400D40FA
:1004E00085B1D0F8C45F67000326BE40B543C0F8AD
:1004F000C45FD0F8C45F6700C2F34116BE40354305
:10050000C0F8C45F651CECB2082CE6DB02F0010504
:100510001DB1D0F800550D4302E0D0F800558D43D1
:10052000C0F8005502F002051DB1D0F804550D4386
:1005300002E0D0F804558D43C0F8045502F00405DC
:100540001DB1D0F808550D4302E0D0F808558D4391
:10055000C0F8085502F008051DB1D0F818550D4334
:1005600002E0D0F818558D43C0F8185502F0100578
:100570001DB1D0F83C550D4302E0D0F83C558D43F9
:10058000C0F83C5503F001051DB1D0F80C550D43E2
:1005900002E0D0F80C558D43C0F80C5503F002056D
:1005A0001DB1D0F810550D4302E0D0F810558D4321
:1005B000C0F8105503F004051DB1D0F814550D43D3
:1005C00002E0D0F814558D43C0F8145503F0080527
:1005D0001DB1D0F81C550D4302E0D0F81C558D43D9
:1005E000C0F81C5503F400751DB1D0F844550D43F7
:1005F00002E0D0F844558D43C0F8445503F44075EB
:100600001DB1D0F840550D4302E0D0F840558D4360
:10061000C0F840551BB9D0F828550D4302E0D0F87A
:1006200028558D43C0F82855F0BD000010B501468F
:10063000C1F307400F4BDB6E01248440234033B1EC
:10064000012303EB40030C4C54F8230003E0430068
:10065000094C54F82300C1F30722D0F82C350F249D
:100660009440A34301F00F0494402343C0F82C3579
:1006700010BD000000E00F408016000030B50446B9
:100680000D460823012229462046FFF723FF0122B9
:1006900029462046FFF705FF30BD30B504460D461C
:1006A000022229462046FFF7FCFE082301222946A4
:1006B0002046FFF70FFF30BD10B501440B68094C11
:1006C000234013430B6002F0020323B1B0230B62FB
:1006D0001B014B6204E08C230B6240F60C034B625F
:1006E00010BD00000100F8FF425842F001024250E4
:1006F000704702461144086800F0020010B1086912
:10070000400070470869401CFBE701440B6803F098
:10071000020313B153080B6101E0531E0B617047D4
:10072000012A03D183680B43836002E083688B4313
:100730008360704730B5044621F03F0528190568ED
:1007400005F0020505B1520803699B1A01F0010585
:100750000DB1C36100E0836130BD000070B52DEDC7
:10076000068B4FF4901000F0FDF93C4800F004FABD
:100770003B4800F001FA04213A48FFF78EFF0821B8
:100780003848FFF78AFF3848FFF750FF3748FFF730
:100790004DFF00224FF480713548FFF78DFF4FF475
:1007A0007A724FF480713248FFF7AFFF4FF48071D7
:1007B0002F48FFF79EFF054600F0B3FB41EC1A0BF4
:1007C0009FED2C0B53EC102B00F0FAFB41EC190BB6
:1007D0009FED2A0B53EC102B00F026FD41EC180B7B
:1007E00000F072FB044622464FF483712048FFF765
:1007F000A1FF4FF480711E48FFF77BFF054600F014
:1008000090FB41EC1A0B9FED1B0B53EC102B00F0EF
:10081000D7FB41EC190B9FED190B53EC102B00F09B
:1008200003FD41EC180B00F04FFB0446224640F25A
:1008300007110F48FFF77EFF012240210C48FFF708
:100840006FFF012280210A48FFF76AFF4FF4807191
:100850000748FFF749FFBDEC068B70BD050800F0A7
:10086000014000F00050024005080500050C05009D
:10087000009002409A9999999999B93F0000000017
:100880000000F03F2DE9F0412DED028B05460E46AC
:1008900090461C46B0EE408A21462846FFF729FFC5
:1008A00000EE100AF8EE400AB7EE000A10EE880AD1
:1008B000BCEEC00A10EE107A3A4631462846FFF7E1
:1008C00039FFBDEC028BBDE8F0810000F0B5504867
:1008D000036E026F02F0004010B102F0700001E000
:1008E00003F03000202811D003DC38B1102815D1D6
:1008F0000AE030280CD0702810D10CE04548C3F332
:10090000841750F827100BE0434909E0434907E0FA
:1009100047F2305104E04FF4004101E00020F0BD07
:1009200000BF4FF0FF3402F0004010B102F400604D
:1009300028B102F0004090BB03F4006078BB384857
:1009400005683348D0F8646106F01F00401CC6F308
:1009500004277F1C10FB07F04000B1FBF0F1C5F34A
:1009600009004843C5F389274F4300EB972143F41F
:1009700080032748006900F47040B0F5804F13D021
:1009800006DCB0F5005F0BD0B0F5405F12D109E096
:10099000B0F5E04F0AD0B0F5104F0BD108E00BE0F6
:1009A000204C08E0204C06E0204C04E0204C02E003
:1009B000204C00E000BF00BF03F4800018B302F039
:1009C0000040D8B102F0804090B102F0004010B178
:1009D00002F4006028B102F0004048B903F400605E
:1009E00030B94F00C2F38650401CB7FBF0F10AE06B
:1009F000C2F3C550401CB1FBF0F104E0C3F3C35097
:100A0000401CB1FBF0F18C4200D22146084686E73B
:100A100000E00F40101700000024F40000093D0022
:100A200060E10F4000B4C40480F0FA02005A620290
:100A300040787D01002D31012DE9F0410646444802
:100A4000046E056F44F4006424F4800445F40065EA
:100A50000466056704F00100D8B106F00100C0B9D2
:100A600066F0010004404FF48070394988650846FB
:100A700004664FF4002702E07F1E07B905E0344802
:100A8000006D00F480700028F6D000BF0FB9BDE8FB
:100A9000F08124F4FE6406F4FE6004432D48054012
:100AA0002C49A13106EA0100054306F0080045EA99
:100AB000C00527480466056724F4005406F4005076
:100AC000044325F4005506F4005005434020204916
:100AD000886505F0004018B108460567046602E025
:100AE0001B48046605671C480440C14306EA010030
:100AF000044325F0FC5506F0FC50054306F0804009
:100B000040B144F4800425F48005144906EA01004C
:100B1000054301E025F0804506F4006080B94FF4FC
:100B2000004706E00E48006800F0010000B102E056
:100B30007F1E002FF6D100BF24F4006425F4006569
:100B40000348046605671020FFF7E0FB00BF9EE73F
:100B500000E00F408FFFFF7FFEFF3FF800004040A6
:100B600068E10F400349096E21F4F0110143014A85
:100B70001166704700E00F4010B50121C0F3072255
:100B8000094B1A4402F0704242F00072C0F307238E
:100B9000054C2344C3F3130342EA4312C3B242EAAF
:100BA0008302116010BD000000E60F401B49096878
:100BB00041F47001194A116019491A4A11671A491A
:100BC00011661A4911661A491167002000E0401C9D
:100BD000B0F57A7FFBD31749124A1166164911679F
:100BE000002000E0401CB0F57A7FFBD313490D4A8A
:100BF000116600BF0B49096D01F040014029F9D190
:100C00000F49084A11664FF0C0711167002000E0DB
:100C1000401C42F210718842FAD3704788ED00E020
:100C20001028800700E00F40D13A8E07422D9E0128
:100C300000288001420D9E0100088001420DDE0166
:100C40004205DE012DED028B3848FFF7F5FE3848EE
:100C5000FFF792FF01220C213648FFF722FC082300
:100C600001220C213348FFF735FC02213148FFF700
:100C700005FDFFF773FD58E02F4890ED000A2F485F
:100C8000D0ED000A30EE200A2B4880ED000A006803
:100C900000F0B4FB41EC180B9FED290B53EC102B2B
:100CA00000F08CFA05D29FED280A244880ED000A56
:100CB00017E02148006800F0A1FB41EC180B9FED04
:100CC000230B53EC102B00F03FF90AD29FED210AC1
:100CD0001A4880ED000A2048007880F001001E4983
:100CE00008701D48007850B9134890ED000A4FF481
:100CF00080734022991D1948FFF7C4FD09E00E4892
:100D000090ED000A4FF480738022D91D1348FFF73D
:100D1000B9FDFFF7DBFD00EB8000400040F6B83185
:100D2000B0FBF1F42046FFF7F1FAA5E740054002D9
:100D3000050800F0005002400400002000000020E0
:100D4000CDCCCCCCCCCCEC3F0AD723BC9A9999998A
:100D50009999B93F0AD7233C08000020009002402F
:100D600010B591EA030F48BF83F0004300F164829D
:100D7000841A71EB030C05D2121943EB0C03001B10
:100D800061EB0C01DFF824E14FEA1154A4EB135C92
:100D90001EEA430F18BF9EEA445F73D023EA0E0396
:100DA000DCF1200E21EA045143F4801332D322FAFD
:100DB0000CFE10EB0E0023FA0CFE41EB0E01CCF101
:100DC000200E03FA0EFE10EB0E0051F10001B1F5FA
:100DD000801FCCF1200E32D201EB045112FA0EF238
:100DE000BDE8104058BF7047401C38BF5FEA420260
:100DF00018BF7047002814BF20F0010041F1000126
:100E00004FEA410313F5001F38BF7047A1F1C041FD
:100E100000F0CEB9012A43EB0302ACF1200CDCF167
:100E20001F0E32BF4FF0000E23FA0CF310EB03003D
:100E300041EB0451B4EB115FD0D0A1EB045101F5AB
:100E4000801149085FEA300001EB04510ED350F1E4
:100E5000000038BF12FA0EFE08D1BDE81040C9E705
:100E6000401C38BF5FEA4202CAD1C3E7BDE8104068
:100E70004FEA410313F5001F38BF7047A1F1C0418D
:100E800000F096B99EEA445F08D011EA5E0FBDE813
:100E9000104004BF01F0004100207047BDE8104041
:100EA00070B500F037F900BF64FBBE3E0000E0FF04
:100EB000491058BFC1F140415B1058BFC3F14043D6
:100EC0008B42EFF3008070474FEA1153A3F5806324
:100ED000D3F11E03A8BFD3F1200C08DB4FF0004272
:100EE00042EAC12252EA505232FA03F070470942F4
:100EF0000BD4102BC4BF0020704703F5787CBCF1E5
:100F0000FF3F05D04FF0FF3070474FF000007047B3
:100F100070B500F0FFF800BF4992248000207047B0
:100F2000F0E7B0FA80F310FA03F10AD0C3F11D0321
:100F300003F580634FEA41504FEA035202EBD1219F
:100F400070474FF00000704751EA030C17D41CF5AE
:100F5000801F58BFBCF5801F00F10680994218BF62
:100F6000704708BF9042704707D711F5801F58BFE0
:100F700013F5801F19D499427047894270471CF5B8
:100F8000801F08D5BCF5801FF7D58B4218BF70476E
:100F900008BF824270474FF4001C1CEB410F38BF62
:100FA0001CEB430F01D28B42704770B500F0B2F8D2
:100FB000922449004FF000514FF08053FFF778BF63
:100FC000DFF848C170B51CEA111E1EBF1CEA1315DC
:100FD0009EEA0C0F95EA0C0F00F06F8081EA030483
:100FE00023EA4C134EEAD47E21EA4C1141F48011DD
:100FF00043F48013AE44A1FB024CA0FB0365AEF1A9
:101000007F7E361955EB0C05A1FB034C4CF1000318
:10101000A0FB021C16EB0C06654153F100030942CC
:1010200018BF46F0010613F4007F0BD14FEA0331DD
:101030004FEA0530340341EA155140EA16506FF08B
:1010400003020AE04FEAC3214FEAC520F40241EA55
:10105000555140EA56506FF0020202EB2E4201EB6E
:10106000025585EACE710AD05FEA440C18BF24F01D
:10107000004450F1000041F1000120EAD47040F238
:10108000FE7C624500D270BDA84214BF4FF0804480
:101090004FF04044002E08BF0024BEF1806FA8BF6F
:1010A000A1F1C041BDE8704080F282804FF00000A5
:1010B00001F1C04101F0004170479EEA0C0F0CEABB
:1010C000131518BF95EA0C0F06D04FF0000081EA07
:1010D000030E0EF0004170BD00F01CF88900013EC7
:1010E00000F007B800F009B84FEA430C5FEA5C5C17
:1010F00008D081EA030100F05BB84FEA410C5FEAD7
:101100005C5CF6D14FF00000014970470000FF071A
:101110000000F87F0EF1020E2EF0030E5EF8046B55
:10112000364205D4012A43EB030515F5001F12D8FA
:10113000012841EB010C1CF5001F0CD80ED14FEA21
:10114000D17C15F5001F0CEB4C0C0CF1020C08BF08
:101150004CEBD37C04E04FF0080C01E04FEAD37C69
:101160000CEB4C0526FA05F606F00706B6F1040C62
:1011700006D20EEB860CBDE870404CF0010C6047C7
:10118000DFE80CF0090B02024FF000414FF00000C5
:10119000A1F5002170BD19461046012851EB01044C
:1011A00018BFD4F5001484BF002001F0004170BDC9
:1011B0000808A0F500114FEA3101704753EA010C0D
:1011C00017D41CF5801F58BFBCF5801F00F10680A6
:1011D0008B4218BF704708BF8242704707D713F58C
:1011E000801F58BF11F5801F19D48B4270479B4256
:1011F00070471CF5801F08D5BCF5801FF7D59942B4
:1012000018BF704708BF904270474FF4001C1CEB9A
:10121000430F38BF1CEB410F01D2994270470FB406
:101220000CBC03BCFFF7C1BE10B591EA030F48BF69
:1012300083F000433FF59CAD841A71EB030C07D299
:1012400012198CF0004C43EB0C03001B61EB0C01FA
:10125000DFF8A4E14FEA1154A4EB135C1EEA430F3C
:1012600018BF9EEA445F00F0B08023EA6E0352424A
:1012700021EA0451C3EB6E0338BF5B1EDCF1200E84
:1012800025D322FA0CFE10EB0E0043FA0CFE41EBC4
:101290000E01CCF1200E03FA0EFE10EB0E0051F100
:1012A0000001CCF1200E29D412FA0EF201EB045108
:1012B000BDE8104058BF7047401C1CBFB2F1004F42
:1012C000704700280CBF491C20F00100704712EB4A
:1012D000020E43EB030218BF4FF0010E4EEA42022A
:1012E000ACF1200CDCF11E0E54D943FA0CFE10EBCD
:1012F0000E0051F1FF31CCF11E0ED5D50EF1010ECD
:1013000012FA0EFE404141EB010101EB445C5FEA41
:101310005C5C10D910EBDE7001EB045138BFBEF1FC
:10132000004FBDE8104018BF704700280CBF491C93
:1013300020F00100704730D24FEAD42C11F5001193
:1013400024F400641BD0B1FA81F20B3AA41AA41E53
:10135000D2F12003914030FA03F31943904001EB9E
:10136000CC71002C01EB0451BDE81040A8BF7047C0
:1013700001F1C0414FF0000001F000417047B0FAA8
:1013800080F310FA03F100D110BDE41A173C4805B0
:10139000C90AE4E701EB045110BD491001EB045107
:1013A000BDE810404FEA300002E04FF00001704706
:1013B0004A0008BF0042F8D0B2F5001F28BF7047AE
:1013C00001F000414FF0000070479EEA445F07D0F3
:1013D00011EA5E0FBDE8104004BF002100207047F5
:1013E000BDE8104070B5FFF795FE00BF40DFF63E48
:1013F00083F00041104670470000E0FF43004FEAD1
:10140000D30C4FEA3C0C43401FBF40070CF1605126
:1014100013F0FE4F70471CF0006F03D100200CF05A
:10142000004170470CF0004343EA507010B540EAA9
:10143000CC0000F00EF800BF000000924FEA00015F
:10144000FFF7B6BE4FF000414FF00000A1F50021BC
:1014500070470EF1020E2EF0030E5EF8044B24428C
:1014600004D44FEA4102B2F17F4F11D84FEA400352
:10147000B3F17F4F0CD80ED14FEAD07CB2F17F4F41
:101480000CEB4C0C0CF1020C08BF4CEBD17C04E0D3
:101490004FF0080C01E04FEAD17C0CEB4C0324FA2E
:1014A00003F404F00704B4F1040C06D20EEB840C30
:1014B000BDE810404CF0010C6047DFE80CF0070875
:1014C00002024FF00040A0F5800010BD0846420027
:1014D00018BFD2F1807288BF00F0004010BD4FF0FD
:1014E0004070E1EE100A704700400040100000001C
:1014F0000080054010000000005000401100000076
:101500000090054011000000006000401200000043
:1015100000A0054012000000007000401300000011
:1015200000B005401300000000400240140000001D
:1015300000C0054014000000005002402E000000D2
:1015400000D005402E000000006002402F00000087
:1015500000E005402F000000007002403000000055
:1015600000F005403000000000D0034046000000BD
:101570000000064046000000001006404700000042
:101580000020064048000000003006407F000000B8
:10159000004006408000000000500640840000002B
:1015A000006006408C000000004000401000000079
:1015B00000800540100000000050004011000000B5
:1015C0000090054011000000006000401200000083
:1015D00000A0054012000000007000401300000051
:1015E00000B005401300000000400240140000005D
:1015F00000C0054014000000005002402E00000012
:1016000000D005402E000000006002402F000000C6
:1016100000E005402F000000007002403000000094
:1016200000F005403000000000D0034043000000FF
:101630000000064043000000001006404400000087
:101640000020064045000000003006405800000021
:101650000040064059000000005006405C000000B9
:101660000060064064000000007006406C0000004E
:10167000008006406D000000009006407F000000E2
:1016800000400040008005400050004000900540B0
:101690000060004000A005400070004000B0054020
:1016A0000040024000C005400050024000D005400C
:1016B0000060024000E005400070024000F005407C
:1016C00000D0034000000640001006400010064015
:1016D0000020064000200640003006400030064052
:1016E00000400640004006400050064000500640C2
:1016F0000060064000600640007006400070064032
:1017000000800640008006400090064000900640A1
:1017100040420F0000201C0080841E000080250035
:10172000999E36000040380000093D0000803E00D0
:1017300000004B00404B4C0000204E00808D5B00B1
:1017400000C05D000080700000127A0000007D0083
:1017500080969800001BB7000080BB00C0E8CE0058
:10176000647ADA000024F4000000FA0080A8120174
:10177000002D310100366E0140787D0140000000EF
:1017800000000000000100003E0008000000000012
:1017900000010000A00000000200000000010000A5
:1017A0003454010000000000000100002B7006000E
:1017B0000000000000010000280000000000000000
:1017C00000010000270001000000000000010000EF
:1017D0002000000000000000000100005000000098
:1017E00002000000000100001AAC00000000000030
:1017F0000001000017940900000000000001000033
:101800001698050000000000000100001400000010
:10181000000000000001000013800800000000002C
:1018200000010000A000000008000000000100000E
:10183000100000000000000000010000280000006F
:101840000200000000010000400000000400000051
:101850000001000060000000000000000001000026
:101860005D000C00000000000001000050000000BE
:1018700000000000000100004E0002000000000017
:101880000001000041AC0100000000000001000068
:101890003C00000000000000000100003A80090048
:1018A0000000000000010000300000000000000007
:1018B00000010000280000000000000000010000FE
:1018C0002700010000000000000100002360060066
:1018D000000000000001000021600800000000007E
:1018E000000100001E0000000000000000010000D8
:1018F0001DC00400000000000001000050000000B6
:1019000002000000000100001800000000000000BC
:1019100000010000140000000000000000010000B1
:101920006000000004000000000100000024F4003A
:1019300030003000005A620291009100008793034A
:10194000D200D20000B4C4041301130100E1F50574
:1019500054015401000E270795019501006889097B
:10196000001C4E0E84190000000000200C00000036
:10197000A8020000901900000C0000206402000082
:10198000C40200000AD7233CCDCCCC3D00000000AF
:040000050000026D88
:00000001FF
