:020000040000FA
:10000000E8060020150300001D0300001F03000088
:10001000210300002303000025030000000000006E
:1000200000000000000000000000000027030000A6
:1000300029030000000000002B0300002D03000036
:100040002F030000310300003303000035030000DC
:1000500037030000390300003B0300003D030000AC
:100060003F0300004103000043030000450300007C
:1000700047030000490300004B0300004D0300004C
:100080004F0300005103000053030000550300001C
:1000900057030000590300005B0300005D030000EC
:1000A0005F030000610300006303000065030000BC
:1000B00067030000690300006B0300006D0300008C
:1000C0006F0300007103000073030000750300005C
:1000D00077030000790300007B0300007D0300002C
:1000E0007F03000081030000000000008303000084
:1000F0008503000087030000890300008B030000D4
:100100008D0300008F0300009103000093030000A3
:1001100000000000000000009503000097030000AD
:10012000990300009B0300009D0300009F03000053
:10013000A1030000A3030000A5030000A703000023
:1001400000000000000000000000000000000000AF
:10015000A9030000AB030000AD030000AF030000E3
:10016000000000000000000000000000000000008F
:10017000000000000000000000000000000000007F
:10018000000000000000000000000000000000006F
:10019000000000000000000000000000000000005F
:1001A000000000000000000000000000000000004F
:1001B000B1030000B3030000B5030000B703000063
:1001C000B9030000BB030000BD030000BF03000033
:1001D000C1030000C3030000C5030000C703000003
:1001E000C9030000CB030000CD03000000000000A5
:1001F00000000000CF030000D1030000D303000083
:10020000D5030000D703000000000000000000003C
:10021000D9030000DB030000DD030000DF03000062
:10022000E1030000E3030000E5030000E703000032
:10023000E9030000EB030000ED030000EF03000002
:10024000F1030000F3030000F5030000F7030000D2
:10025000F9030000FB030000FD030000FF030000A2
:1002600001040000030400000504000000F002F88F
:1002700000F03CF80AA090E8000C82448344AAF104
:100280000107DA4501D100F031F8AFF2090EBAE802
:100290000F0013F0010F18BFFB1A43F001031847BA
:1002A0004C1900006C190000103A24BF78C878C1BE
:1002B000FAD8520724BF30C830C144BF04680C606C
:1002C000704700000023002400250026103A28BFB4
:1002D00078C1FBD8520728BF30C148BF0B607047B8
:1002E0001FB501F08DF91FBD10B510BD00F0E8F885
:1002F0001146FFF7F5FF00F035FC00F006F903B4F6
:10030000FFF7F2FF03BC00F00DF900000138FDD14A
:10031000704700003F4880473F480047FEE7FEE740
:10032000FEE7FEE7FEE7FEE7FEE7FEE7FEE7FEE7A5
:10033000FEE7FEE7FEE7FEE7FEE7FEE7FEE7FEE795
:10034000FEE7FEE7FEE7FEE7FEE7FEE7FEE7FEE785
:10035000FEE7FEE7FEE7FEE7FEE7FEE7FEE7FEE775
:10036000FEE7FEE7FEE7FEE7FEE7FEE7FEE7FEE765
:10037000FEE7FEE7FEE7FEE7FEE7FEE7FEE7FEE755
:10038000FEE7FEE7FEE7FEE7FEE7FEE7FEE7FEE745
:10039000FEE7FEE7FEE7FEE7FEE7FEE7FEE7FEE735
:1003A000FEE7FEE7FEE7FEE7FEE7FEE7FEE7FEE725
:1003B000FEE7FEE7FEE7FEE7FEE7FEE7FEE7FEE715
:1003C000FEE7FEE7FEE7FEE7FEE7FEE7FEE7FEE705
:1003D000FEE7FEE7FEE7FEE7FEE7FEE7FEE7FEE7F5
:1003E000FEE7FEE7FEE7FEE7FEE7FEE7FEE7FEE7E5
:1003F000FEE7FEE7FEE7FEE7FEE7FEE7FEE7FEE7D5
:10040000FEE7FEE7FEE7000004480549034A054B06
:1004100070470000D50A00006D020000E8040020CB
:10042000E8060020E80400204FF000020429C0F094
:10043000128010F0030C00F01B80CCF1040CBCF116
:10044000020F18BF00F8012BA8BF20F8022BA1EB68
:100450000C0100F00DB85FEAC17C24BF00F8012B4D
:1004600000F8012B48BF00F8012B70474FF0000245
:1004700000B5134694469646203922BFA0E80C509A
:10048000A0E80C50B1F12001BFF4F7AF090728BF75
:10049000A0E80C5048BF0CC05DF804EB890028BFF1
:1004A00040F8042B08BF704748BF20F8022B11F01A
:1004B000804F18BF00F8012B704770477047704796
:1004C000754600F02BF8AE4605006946534620F00D
:1004D0000700854618B020B5FFF796FFBDE820401D
:1004E0004FF000064FF000074FF000084FF0000BF0
:1004F00021F00701AC46ACE8C009ACE8C009ACE8A3
:10050000C009ACE8C0098D46704710B50446AFF38A
:1005100000802046BDE81040FFF7F1BE004870475C
:100520008804002001491820ABBEFEE72600020027
:100530007047D307D0F8003401D00B4300E08B4361
:10054000C0F800349207D0F8202401D50A4300E017
:100550008A43C0F8202470472DE9F04300244FF06F
:1005600001084FF00309C2F3411C08FA04F50D42DB
:100570000ED0D0F8C47F650009FA05F6B743C0F87D
:10058000C47FD0F8C46F0CFA05F52E43C0F8C46FD1
:10059000641CE4B2082CE8D3D407D0F8004501D09D
:1005A0000C4300E08C43C0F800459407D0F80445A4
:1005B00001D50C4300E08C43C0F804455407D0F843
:1005C000084501D50C4300E08C43C0F808451407EA
:1005D000D0F8184501D50C4300E08C43C0F818450D
:1005E000D206D0F83C2501D50A4300E08A43C0F882
:1005F0003C25DA07D0F80C2501D00A4300E08A43F5
:10060000C0F80C259A07D0F8102501D50A4300E060
:100610008A43C0F810255A07D0F8142501D50A439B
:1006200000E08A43C0F814251A07D0F81C2501D52C
:100630000A4300E08A43C0F81C259A05D0F84425F7
:1006400001D50A4300E08A43C0F84425D0F840258C
:1006500013F4407F01D00A4300E08A43C0F84025EC
:10066000D0F8282523B18A43C0F82825BDE8F083B7
:100670000A43F9E70E4A10B5D36EC0F307410122D1
:100680008A4013420B4A03D002EBC101496801E0E2
:1006900052F83110020AD1F82C350F24944000F0A2
:1006A0000F00A34390400343C1F82C3510BD000058
:1006B00000E00F40A417000030B50C4605460222AA
:1006C000FFF737FF21462846BDE8304009230122C5
:1006D000FFF742BF30B50C4605460222FFF729FF5F
:1006E00021462846BDE8304008230122FFF734BFE9
:1006F0004068C00700D001207047416070478160AA
:1007000070470000036A43F0100303620AB10E4A07
:1007100000E00E4A02EB820301EB830302EB82024C
:1007200092005B1EB3FBF2F2521EC260D0F8C02FE3
:10073000D20708D0064A1144521CB1FBF2F1491EFF
:1007400041F08001C1607047801A0600A086010058
:100750007F47370142EA4101016070472DE9F041CE
:100760000D461D4F9046014600223846FFF7F2FF26
:1007700029783846FFF7C3FF03213846FFF7BDFF4E
:100780000124A8F101060EE03846FFF7B1FF00286A
:10079000FAD1295D3846FFF7B2FF01213846FFF74D
:1007A000ACFF641CE4B2B442EED33846FFF7A0FFBE
:1007B0000028FAD105EB080010F8011C3846FFF7B5
:1007C0009EFF05213846FFF798FF3846FFF790FF58
:1007D0000028FAD1BDE8F0810000024010B5124CAB
:1007E000204600F045F9204600F056F90F4800F089
:1007F0003FF90F48FFF73EFF0E48FFF73BFF0E4C57
:1008000004212046FFF766FF08212046FFF754FF2A
:1008100000F01AF8014600220848FFF773FF094963
:100820000748086010BD0000002000F0010800F03B
:1008300003080100030C01000050004000000240CA
:1008400040D3C404040F0240F0B5454E326E316F00
:10085000002902DA01F0700001E002F030002028E7
:1008600012D003DC40B1102804D10BE030280DD0A9
:1008700070280ED00020F0BD7C203A4B00EA121008
:10088000185808E0384806E0384804E047F230508D
:1008900001E04FF400404FF0FF33002901DA0C056E
:1008A00005D501F0004402F400652C4336D1D6F89A
:1008B0006041D6F8645105F01F07C5F304256D1C8F
:1008C0007F1C17FB05F56D00B0FBF5F0C4F30905BF
:1008D0004543C4F389246043346905EB902042F416
:1008E000800204F47044B4F5804F12D006DCB4F5F5
:1008F000005F0AD0B4F5405F10D108E0B4F5E04FD6
:1009000009D0B4F5104F09D107E0194B06E0194B97
:1009100004E0194B02E0194B00E0194B540217D5C3
:10092000002919DA4C0007D50C050BD501F000445D
:1009300002F40062144305D0C1F3C551491CB0FB59
:10094000F1F005E04200C1F38650401CB2FBF0F02C
:10095000834290D21846F0BDC2F3C351EEE70000C7
:1009600000E00F403C1800000024F40000093D00A6
:1009700000B4C40480F0FA02005A620240787D019B
:10098000002D310130B4364C216E236F21F48001EB
:1009900041F4006243F400652266256722EA000103
:1009A000C9070ED060F001010A40A115A1652266B9
:1009B000C90201E0491E50D0236DDB05FAD500299C
:1009C0004BD022F4FE6200F4FE611143254A00F090
:1009D00008031540234A2166A13202402A4342EA15
:1009E000C302226721F4005300F400510B4322F4A8
:1009F000005211434FF04002A26502D521672366E1
:100A000001E023662167184A1340D24302401A438B
:100A100021F0FC5300F0FC511943430007D5134B60
:100A200021F48001034042F480020B4301E021F0F5
:100A3000804300050BD44FF40041D4F86801C0078F
:100A400001D1491EF9D122F4006223F40063226629
:100A5000236730BC1020FFF759BC30BC7047000042
:100A600000E00F408FFFFF7FFEFF3FF80000404097
:100A7000C0F307230749C0B2194401F07043C1F322
:100A8000130143EA411141EA800040F00070012265
:100A90000260704700E60F4008B5C0F307230C4919
:100AA000C0B2194401F07043C1F3130143EA41118C
:100AB00041EA800040F0007101220A6000220092A9
:100AC0000098401C00901028FAD30A6008BD00006E
:100AD00000E50F401648016841F4700101601649B5
:100AE00014480867154808661548086615480867D9
:100AF00000204FF47A72401C9042FCD312480866E2
:100B0000124808670020401C9042FCD31048086639
:100B1000086D4006FCD50F4808664FF0C0700867A6
:100B2000002042F21071401C8842FCD37047000044
:100B300088ED00E01028800700E00F40D13A8E07D2
:100B4000422D9E0100288001420D9E010008800177
:100B5000420DDE014205DE0140F66C414843401E75
:100B6000FDD27047A6B01048FFF70CFF01A800F0B7
:100B70001DF80F24192320221E2101A8009400F043
:100B800039F819232022402101A8009400F032F8FE
:100B900019232022622101A8009400F02BF801A85B
:100BA00000F0CCF8E6E700004005400210B504462E
:100BB000084B094A094900F003F9204600F0D9FA28
:100BC0000021204600F0E5FA2046BDE8104000F084
:100BD00007B800007D15000035120000881A0000DB
:100BE000016890F83820097C12FB01F1C900406BC4
:100BF000FFF71ABC2DE9F8431C4680461019401C2B
:100C000080B200900819401C83B21546101B82B2B6
:100C10000E46081B81B2089F404600F077F8002876
:100C200006D023462A4631464046009700F039F95F
:100C3000BDE8F8833FB581B0044690F88C00089970
:100C4000002839D0BDF81000002835D0012811D96E
:100C5000022902D0032907D00CE0BDF80820101AA1
:100C6000401CADF8080005E0BDF80C20101A401C2F
:100C7000ADF80C0011F0010520D0B4F84810BDF813
:100C80000800814218D8B4F84A10814214D9B4F847
:100C90004E30B4F84C2004A903A800F0E4F8002872
:100CA0000AD00095206BBDF81030BDF80C20856887
:100CB000BDF808102046A84705B030BDB4F84C1068
:100CC000BDF80C008142F7D8B4F84E108142F3D938
:100CD000B4F84A30B4F8482004A902A8DDE708B502
:100CE000B0F84C30934210D8B0F84E3093420CD943
:100CF000B0F848308B4208D8B0F84A308B4204D95B
:100D0000002300930123FFF795FF08BD70B50D4642
:100D10001E460446B0F84E10B0F84C00049B00F09C
:100D200063F9002809D0B4F84A10B4F848003346F3
:100D30002A46BDE8704000F057B970BD10B50446B2
:100D400000F0ACF92046BDE8104000F01ABA0000EF
:100D50000149C16570470000E50F00000021A0F8BF
:100D60005010A0F854104FF6FF71A0F85210A0F8E0
:100D70005610016B4968084770B504460025049871
:100D8000A565E362616384F8382084F8395084F8FB
:100D90006D5084F8915084F88D50012184F89210A0
:100DA00084F8931020630168204688472046FFF7A7
:100DB000D5FF2046FFF7CCFF84F8705070BD0000CF
:100DC0007CB50C46009313460546084A084900F0D6
:100DD000E8F901A800F05CF90146064B00949DF883
:100DE00004202846FFF7C8FF7CBD00004D1300001B
:100DF000751400000110000038B50446B0F8560024
:100E00000090B4F85230B4F85420B4F85010204692
:100E1000FFF77CFF18B3012084F88C00B4F8481069
:100E2000B4F85000814201D2A4F84800B4F84A1046
:100E3000B4F85200814201D9A4F84A00B4F84C1029
:100E4000B4F85400814201D2A4F84C00B4F84E101A
:100E5000B4F85600814201D9A4F84E0038BD0020F4
:100E600084F88C0038BD30B504880D882544ADB2B7
:100E7000AC4205D99C4202D25D1EADB200E01446E0
:100E80009C4201D2954201D8002030BD944200D24C
:100E900014469D4200D91D460480281B088001206D
:100EA00030BD2DE9FF4FC3F1010083B004B25842B9
:100EB0009146DDF840A040008B4601271D46CDE954
:100EC000009A00260FFA80F85B462A46314615E064
:100ED000002C08DB08F102000FFA80F86D1E04EB0D
:100EE0000800ADB204B2761CBF1C3FB2CDE9009A37
:100EF000B6B2E01904B25B462A463146039800F0C8
:100F000005F8AE42E4D307B0BDE8F08F2DE9FF4FFE
:100F100083B00E46DDE9108703EB0600029015460C
:100F2000A8EB0600019003EB05001C46F907A8EBAF
:100F3000050B00900DD002981FFA8BF281B2039836
:100F4000FFF7CDFE019882B2009881B20398FFF7B7
:100F5000C6FEB907A4EB060AA4EB05090DD51FFAD6
:100F60008BF21FFA8AF10398FFF7B9FE01981FFA76
:100F700089F182B20398FFF7B2FE08EB0504390746
:100F800008EB06050BD50298A2B281B20398FFF7D1
:100F9000A6FE0098AAB281B20398FFF7A0FE7807D8
:100FA0000ED5A2B21FFA8AF10398FFF798FE0398B4
:100FB00007B0AAB21FFA89F1BDE8F04FFFF78FBE64
:100FC00007B0BDE8F08F38B5C58F049C0094521B64
:100FD000C46A92B2A04738BD38B5049C0094FFF7AC
:100FE000F2FF38BD002070478A4205D2834201D803
:100FF0009A4203D9012070478342F9D800207047F4
:10100000F0B502F007060124B440002590F892E004
:10101000E7B2DDF814C02C46BEF1010F01D83D4601
:1010200000D03C46076822F00702BCF1000F3F7C6D
:1010300007FB02F7426BBFB23A44114409D108786A
:101040005B1E284360401B0401F8010B1B0CF6D10A
:10105000F0BD0A78761C2A436240A3F101030A70AE
:1010600016F007069BB206D06A06150E6206140E2D
:10107000002BEED1F0BD428F114490F89220012A4E
:1010800002D84FF00105F3D04FF00104F0E7000063
:101090000821017000487047880000202DE9F843BE
:1010A000074690F8389090F83950006800244FF6C1
:1010B000FF78467C396838462A460B7C796B04FBFE
:1010C00003FC1FFA8CFC08EACC0C6144009100215F
:1010D00000F040F8641C6D1CE4B2EDB24C4501D246
:1010E000B542E7D3BDE8F883F0B590F838204FF665
:1010F000FF76016806EAC20383870B7C06EAC30316
:10110000438790F8393006EAC304C4874D7C9F18A2
:10111000AF4201D9EA1A92B206EAC20220F8404F61
:10112000224442808A8A8280C98AC180F0BDFFF74A
:10113000DBBF0021A0F84810B0F84410A0F84A1016
:10114000B0F84010A0F84C10B0F84210A0F84E10C3
:10115000FFF752BE1CB58DF805108DF80620049CD3
:101160008DF804300094012284686B460F21A0475B
:101170001CBD30B484680023A44630BC1A460A2142
:10118000604730B484680023A44630BC1A4610215E
:10119000604730B484680023A4460A4630BC0B2163
:1011A00060472DE9F04116460D460446069F00F0C3
:1011B00009F86761A560C4E903632046BDE8F04112
:1011C00000F012B8002140F8081B064A0260426095
:1011D0008260C260C17681770161FF21017780F86A
:1011E000201070477915000030B484680023A446AD
:1011F00030BC1A460921604730B404690023A44674
:1012000030BC1A461921604713B501AA012100F02C
:1012100001F81CBD30B404691346A4460A4630BC2C
:101220001721604730B404690023A44630BC1A4635
:101230001821604770B5154C18290ED004DC14290C
:1012400008D0172904D10BE0192916D020291BD06A
:10125000002070BDFFF7C2FA16E00020207013E0F6
:101260000B4907E0207813F8015B0D54401C521E17
:101270002070D2B2002AF5D106E090F8240022783E
:1012800040080349FFF76AFA012070BD0000002002
:101290000800002030B4C4680023A44630BC1A46BD
:1012A0001921604730B4C4680023A4460A4630BC04
:1012B0001621604730B4C4680023A4460A4630BCF7
:1012C0001521604730B4C4681346A4460A4630BCB2
:1012D00017216047F8B50C46054614F8011B18297C
:1012E00024D00EDC152919D0162917D0172923D19F
:1012F00020788DF800006A4601212846FFF7E2FFBA
:101300000AE0192912D0FE2916D122788DF8002082
:101310002921284600F058F9641CDEE722788DF870
:101320000020EE6800232846B047F5E70023EE686A
:101330001A462846B047D0E7F8BD30B4C468002349
:10134000A44630BC1A461821604700002DE9F04140
:10135000DFF8B08014460546A1F11402002698F883
:1013600000001F46062A4AD2DFE802F02F03161BB0
:101370003E4310B12846FFF73FFF2846FFF752FFD4
:1013800000212846FFF740FF21462846FFF73CFF93
:10139000012088F8000029E021462846FFF734FFA5
:1013A00024E050B12846FFF727FF06E01821284621
:1013B00000F010F9183CE4B21837182C3A46F5D86A
:1013C0002146284600F006F90EE095F82400FF2893
:1013D00002D1782085F824002E693B462246284613
:1013E000B446BDE8F041604788F800600120BDE8E0
:1013F000F0810028F8D02846FFF7FEFEF4E7002031
:10140000F5E700000100002070B50023456904469F
:101410001A462821A8470023E5681A4614212046C9
:10142000A84701224B21204600F0CEF82068292150
:101430000279204600F0C8F800224B21204600F037
:10144000C3F8206829210279204600F0BDF8012266
:101450004B21204600F0B8F8206829214279204627
:10146000BDE8704000F0B0B80160897C80F82210BF
:101470007047000070B50C46054600F019F888B9B1
:10148000092C0BD00A2C01D0002070BD2846FFF794
:10149000BBFF05492846FFF71DFF03E00349284627
:1014A000FFF7E2FF012070BDBA1A0000BC1B00006C
:1014B0002DE9F0411E46144605460B2908D00D299A
:1014C0000ED00E291DD00F2926D00020BDE8F081B6
:1014D0001AB12849FFF7FEFE49E02649491FF9E7FE
:1014E00042B124490C31FFF7F5FE2868C07C85F82D
:1014F00022003CE01F49491DFFF7ECFE2868807C74
:10150000F5E7FFF71AFF81212846FFF7D3FE2146B2
:101510002846FFF7C7FE27E0FFF70FFF707995F821
:10152000221001EBC000C7B240212846FFF7C2FEDF
:10153000102040EA17112846FFF7BCFE07F00F0104
:101540002846FFF7AFFEB07940F0B0012846FFF71C
:10155000A9FE30793268C006010E2846FFF7B2FEB8
:10156000641E14F0FF04F4D12846FFF793FE012017
:10157000ACE70000991A00000020704700B54D2923
:1015800019D00CDC2B2916D004DC292915D02A29E6
:101590000ED110E02D290ED04C2909D10BE00022EC
:1015A00050290ED051290CD052290AD0532908D0E5
:1015B000012180F82710012000BD1046FFF7CCFA6A
:1015C000F9E780F82720F6E730B444690023A44601
:1015D00030BC60472DE9F04116460F460446FFF740
:1015E00021FE40212046FFF70FFE256933463A468B
:1015F00017212046A8472046BDE8F041FFF7FCBD73
:101600004FF04070E1EE100A7047000000400040CB
:101610001000000000800540100000000050004055
:101620001100000000900540110000000060004023
:101630001200000000A005401200000000700040F1
:101640001300000000B005401300000000400240FD
:101650001400000000C005401400000000500240CB
:101660002E00000000D005402E0000000060024067
:101670002F00000000E005402F0000000070024035
:101680003000000000F005403000000000D00340B2
:101690004600000000000640460000000010064022
:1016A00047000000002006404800000000300640CF
:1016B0007F0000000040064080000000005006400F
:1016C00084000000006006408C00000000400040E4
:1016D0001000000000800540100000000050004095
:1016E0001100000000900540110000000060004063
:1016F0001200000000A00540120000000070004031
:101700001300000000B0054013000000004002403C
:101710001400000000C0054014000000005002400A
:101720002E00000000D005402E00000000600240A6
:101730002F00000000E005402F0000000070024074
:101740003000000000F005403000000000D00340F1
:101750004300000000000640430000000010064067
:101760004400000000200640450000000030064014
:10177000580000000040064059000000005006409C
:101780005C0000000060064064000000007006403D
:101790006C000000008006406D00000000900640D4
:1017A0007F000000004000400080054000500040E5
:1017B000009005400060004000A00540007000401F
:1017C00000B005400040024000C00540005002400B
:1017D00000D005400060024000E00540007002407B
:1017E00000F0054000D00340000006400010064015
:1017F0000010064000200640002006400030064051
:1018000000300640004006400040064000500640C0
:101810000050064000600640006006400070064030
:1018200000700640008006400080064000900640A0
:101830000090064000688909001C4E0E40420F00CF
:1018400000201C0080841E0000802500999E360028
:101850000040380000093D0000803E0000004B00C1
:10186000404B4C0000204E00808D5B0000C05D00AE
:101870000080700000127A0000007D0080969800C1
:10188000001BB7000080BB00C0E8CE00647ADA001D
:101890000024F4000000FA0080A81201002D31019C
:1018A00000366E0140787D0140000000000000001D
:1018B000000100003E0008000000000000010000E0
:1018C000A0000000020000000001000034540100EC
:1018D00000000000000100002B7006000000000066
:1018E00000010000280000000000000000010000CE
:1018F000270001000000000000010000200000009F
:101900000000000000010000500000000200000084
:10191000000100001AAC00000000000000010000FF
:10192000179409000000000000010000169805004F
:101930000000000000010000140000000000000092
:1019400000010000138008000000000000010000FA
:10195000A0000000080000000001000010000000CE
:10196000000000000001000028000000020000004C
:101970000001000040000000040000000001000021
:101980006000000000000000000100005D000C008D
:1019900000000000000100005000000000000000F6
:1019A000000100004E0002000000000000010000E5
:1019B00041AC010000000000000100003C000000FC
:1019C00000000000000100003A8009000000000053
:1019D00000010000300000000000000000010000D5
:1019E00028000000000000000001000027000100A6
:1019F000000000000001000023600600000000005D
:101A0000000100002160080000000000000100004B
:101A10001E00000000000000000100001DC00400C6
:101A20000000000000010000500000000200000063
:101A3000000100001800000000000000000100008C
:101A40001400000000000000000100006000000021
:101A500004000000000100000024F4003000300009
:101A6000005A62029100910000879303D200D200D5
:101A700000B4C4041301130100E1F505540154013D
:101A8000000E2707950195012F110000331100006A
:101A9000D90F00001815AF19FF1815AE19FF18154A
:101AA000A115C819FF1815A015C019FF1815A11503
:101AB000C019FF1815A015C819FF1815AE15D516B1
:101AC0008015A8163F15D316001540158D16141550
:101AD00020160015A115C815DA1612158116CF1596
:101AE000D916F115DB1640152E15A415A619FF18E9
:101AF00015AE15D5168015A8163F15D3160015403E
:101B0000158D16141520160015A115C815DA161214
:101B1000158116EF15D916A115DB1600152E15A483
:101B200015A619FF1815AE15D5168015A8163F1560
:101B3000D316001540158D16141520160015A11585
:101B4000C815DA1602158116CF15D916F115DB1650
:101B500040152E15A415A619FF1815AE15A415D5F8
:101B6000165015A8163F15D31600154015AD168B47
:101B700015D9162215DB16351532158116FF15A657
:101B800015DA161219FF1815AE15D5168015A816F8
:101B90003F15D316001540158D1614152016001587
:101BA000A115C015DA1612158116CF15D916F11523
:101BB000DB1640152E15A415A619FF000001140A06
:101BC0006464323200127A00000428961008000083
:101BD000800040000001140A6464323200093D00B4
:101BE0000004289610080202800040000C1C00002F
:101BF0000000002008000000A8020000141C0000E3
:101C000008000020E0060000C40200000000000000
:041C100000000000D0
:040000050000026D88
:00000001FF
