:020000040000FA
:10000000B80E0020650300006D0300006F030000C0
:10001000710300007303000075030000000000007E
:100020000000000000000000000000007703000056
:1000300079030000000000007B0300007D03000046
:100040007F0300008103000083030000850300009C
:1000500087030000890300008B0300008D0300006C
:100060008F0300009103000093030000950300003C
:1000700097030000990300009B0300009D0300000C
:100080009F030000A1030000A3030000A5030000DC
:10009000A7030000A9030000AB030000AD030000AC
:1000A000AF030000B1030000B3030000B50300007C
:1000B000B7030000B9030000BB030000BD0300004C
:1000C000BF030000C1030000C3030000C50300001C
:1000D000C7030000C9030000CB030000CD030000EC
:1000E000CF030000D103000000000000D303000094
:1000F000D5030000D7030000D9030000DB03000094
:10010000DD030000DF030000E1030000E303000063
:100110000000000000000000E5030000E70300000D
:10012000E9030000EB030000ED030000EF03000013
:10013000F1030000F3030000F5030000F7030000E3
:1001400000000000000000000000000000000000AF
:10015000F9030000FB030000FD030000FF030000A3
:10016000000000000000000000000000000000008F
:10017000000000000000000000000000000000007F
:10018000000000000000000000000000000000006F
:10019000000000000000000000000000000000005F
:1001A000000000000000000000000000000000004F
:1001B000010400000304000005040000070400001F
:1001C000090400000B0400000D0400000F040000EF
:1001D00011040000130400001504000017040000BF
:1001E000190400001B0400001D04000000000000B2
:1001F000000000001F040000210400002304000090
:10020000250400002704000000000000000000009A
:10021000290400002B0400002D0400002F0400001E
:1002200031040000330400003504000037040000EE
:10023000390400003B0400003D0400003F040000BE
:10024000410400004304000045040000470400008E
:10025000490400004B0400004D0400004F0400005E
:1002600051040000530400005504000000F002F89F
:1002700000F051F80AA090E8000C82448344AAF1EF
:100280000107DA4501D100F046F8AFF2090EBAE8ED
:100290000F0013F0010F18BFFB1A43F001031847BA
:1002A00044440000644400000A4410F8014B14F078
:1002B0000F0508BF10F8015B240908BF10F8014BB7
:1002C0006D1E05D010F8013B6D1E01F8013BF9D100
:1002D000641E03D0641E01F8015BFBD19142E4D39C
:1002E000704700000023002400250026103A28BF94
:1002F00078C1FBD8520728BF30C148BF0B60704798
:10030000642900F00181002070471FB503F04FF908
:100310001FBD10B510BD00F0F6F91146FFF7F5FF4F
:1003200001F0C6FB00F014FA03B4FFF7F2FF03BCC0
:1003300000F01CFAEFF3108072B67047EFF31080F4
:100340007047EFF3108062B6704730BF704780F39C
:1003500011887047EFF31180704700000138FDD11C
:10036000704700003F4880473F480047FEE7FEE7F0
:10037000FEE7FEE7FEE7FEE7FEE7FEE7FEE7FEE755
:10038000FEE7FEE7FEE7FEE7FEE7FEE7FEE7FEE745
:10039000FEE7FEE7FEE7FEE7FEE7FEE7FEE7FEE735
:1003A000FEE7FEE7FEE7FEE7FEE7FEE7FEE7FEE725
:1003B000FEE7FEE7FEE7FEE7FEE7FEE7FEE7FEE715
:1003C000FEE7FEE7FEE7FEE7FEE7FEE7FEE7FEE705
:1003D000FEE7FEE7FEE7FEE7FEE7FEE7FEE7FEE7F5
:1003E000FEE7FEE7FEE7FEE7FEE7FEE7FEE7FEE7E5
:1003F000FEE7FEE7FEE7FEE7FEE7FEE7FEE7FEE7D5
:10040000FEE7FEE7FEE7FEE7FEE7FEE7FEE7FEE7C4
:10041000FEE7FEE7FEE7FEE7FEE7FEE7FEE7FEE7B4
:10042000FEE7FEE7FEE7FEE7FEE7FEE7FEE7FEE7A4
:10043000FEE7FEE7FEE7FEE7FEE7FEE7FEE7FEE794
:10044000FEE7FEE7FEE7FEE7FEE7FEE7FEE7FEE784
:10045000FEE7FEE7FEE7000004480549034A054BB6
:1004600070470000711500006D020000B80C0020FC
:10047000B80E0020B80C00200FB41CB5074B06AA1C
:100480007B4469460090059800F025F900206946F4
:1004900000F034F91CBC5DF814FB00007902000088
:1004A0002DE9F0410E460446002020622046E16816
:1004B000884730B3252805D0D4E901219047206A28
:1004C000401CF2E7E168204600278847050018D065
:1004D000A5F14100192802D820354FF400673246B3
:1004E000294620462760FFF70BFF40B1012804D0C2
:1004F000F61D26F007060836D8E7361DD6E728464B
:10050000DAE7206ABDE8F0812DE9F04106460024D3
:1005100010687529314616A510D0AFF30080002869
:1005200002DA404213A507E031688A0701D512A517
:1005300002E0490704D511A5012401E0AFF30080D2
:1005400000210A2206F1240709E0B0FBF2FCB0FB0F
:10055000F2F302FB1C00303078541846491C002886
:10056000F3D123462A463046BDE8F04100F054B8A6
:10057000000000002D0000002B0000002000000003
:100580004FF000020429C0F0128010F0030C00F0BC
:100590001B80CCF1040CBCF1020F18BF00F8012B3A
:1005A000A8BF20F8022BA1EB0C0100F00DB85FEA08
:1005B000C17C24BF00F8012B00F8012B48BF00F8D4
:1005C000012B70474FF0000200B513469446964643
:1005D000203922BFA0E80C50A0E80C50B1F1200156
:1005E000BFF4F7AF090728BFA0E80C5048BF0CC004
:1005F0005DF804EB890028BF40F8042B08BF704762
:1006000048BF20F8022B11F0804F18BF00F8012BD3
:1006100070477047704770472DE9F0470D4699467F
:100620009246044600F124080168880604D5E06972
:1006300021F01001216000E00120A84201DD471BEC
:1006400000E00027A1697A1902EB0900081AA061ED
:100650002078C00602D42046AFF30080002608E0D0
:10066000D4E901211AF806009047206A401C761C44
:1006700020624E45F4DB2078C0060AD52046AFF351
:10068000008006E0D4E9012130209047206A401C18
:100690002062381EA7F10107F4DC07E0D4E901214C
:1006A00018F805009047206A401C2062281EA5F11A
:1006B0000105F3DC2046AFF300802078000602D568
:1006C0000220BDE8F0870120FBE7000001694A1C19
:1006D00002610878704700B58FB0CDE90131002183
:1006E000059105497944CDE9031011466846FFF7A5
:1006F000D7FE0FB000BD0000E5FFFFFF0A6802F85B
:10070000010B0A607047754600F02CF8AE460500F4
:100710006946534620F00700854618B020B5FFF71C
:100720009BFEBDE820404FF000064FF000074FF061
:1007300000084FF0000B21F00701AC46ACE8C009FF
:10074000ACE8C009ACE8C009ACE8C0098D46704708
:1007500010B50446AFF300802046BDE81040FFF717
:10076000E3BD000000487047580C002001491820E4
:10077000ABBEFEE7260002007047000010B50C4833
:1007800000F0F6FD0B4801F075F800F089FB00F071
:10079000CFFC00F085FC00F00FFC00F057F800F0F3
:1007A000D3FE01F0E9F9BDE8104000F0D9BF000028
:1007B0008003C0016C06002010B51B499FED190A8B
:1007C0002DED028B81ED0B0A81ED0C0A00EE100A73
:1007D000B8EEC00A81ED050A02F0FBFB9FED131B8A
:1007E00053EC112B02F06EFA9FED121B53EC112B00
:1007F00002F042FC02F080F908EE100A0F48B0EE59
:10080000480A01F0D7F9B0EE480A0D4801F0D2F9D4
:1008100001F0B2F90B49002008600B490860BDECFB
:10082000028B10BD0000000014000020295C8FC264
:10083000F56834400000000000A094400808002043
:10084000300800200C0000201000002070B518486F
:1008500000F00EFE1648C01C00F00AFE1448001DF1
:1008600000F006FE134C0022C021204600F028F8BC
:10087000114D00220C21284600F022F80F4E0022D4
:100880001021304600F01CF80A230122C021204626
:1008900000F029F80A2301220C21284600F023F851
:1008A0003046BDE870400A230122102100F01BB839
:1008B000010800F00050004000400240005002409B
:1008C000D307D0F8003401D00B4300E08B43C0F8CD
:1008D00000349207D0F8202401D50A4300E08A436F
:1008E000C0F8202470472DE9F04300244FF00108A0
:1008F0004FF00309C2F3411C08FA04F50D420ED073
:10090000D0F8C47F650009FA05F6B743C0F8C47F84
:10091000D0F8C46F0CFA05F52E43C0F8C46F641C00
:10092000E4B2082CE8D3D407D0F8004501D00C433A
:1009300000E08C43C0F800459407D0F8044501D589
:100940000C4300E08C43C0F804455407D0F8084538
:1009500001D50C4300E08C43C0F808451407D0F8DB
:10096000184501D50C4300E08C43C0F81845D20669
:10097000D0F83C2501D50A4300E08A43C0F83C2565
:10098000DA07D0F80C2501D00A4300E08A43C0F80A
:100990000C259A07D0F8102501D50A4300E08A43B8
:1009A000C0F810255A07D0F8142501D50A4300E0F5
:1009B0008A43C0F814251A07D0F81C2501D50A432C
:1009C00000E08A43C0F81C259A05D0F8442501D5DB
:1009D0000A4300E08A43C0F84425D0F8402513F4C8
:1009E000407F01D00A4300E08A43C0F84025D0F898
:1009F000282523B18A43C0F82825BDE8F0830A439F
:100A0000F9E700000E4A10B5D36EC0F3074101228A
:100A10008A4013420B4A03D002EBC101496801E04E
:100A200052F83110020AD1F82C350F24944000F00E
:100A30000F00A34390400343C1F82C3510BD0000C4
:100A400000E00F405C37000050F82100704730B5DF
:100A50000C46054608230122FFF745FF214628469C
:100A6000BDE830400122FFF72BBF30B50C460546EC
:100A70000222FFF725FF21462846BDE83040092322
:100A80000122FFF730BF30B50C4605460222FFF7C2
:100A900017FF21462846BDE8304008230122FFF712
:100AA00022BF30B50C4605460222FFF709FF21465A
:100AB0002846BDE8304008230122FFF714BF30B5B7
:100AC0000C4605460222FFF7FBFE21462846BDE8FC
:100AD00030400A230122FFF706BF40F8212070476B
:100AE00070B50F4D284600F01FFB0E4C00212080F2
:100AF000284600F01BFB0C4D284600F015FB6080DB
:100B00000021284600F012FBB4F900106068084488
:100B10006060B4F90210A0680844A06070BD0000D5
:100B200000C002400800002000D0024070B50E4D09
:100B300080212846FFF788FF0C4C4021E0702846B2
:100B4000FFF782FF0A4D207108212846FFF77CFF3E
:100B5000207004212846FFF777FF607010210548B8
:100B6000FFF772FFA07070BD0050004048000020E9
:100B7000004002400050024010B5FFF7D7FF294A5D
:100B8000507811780346084307D194782CB1D47873
:100B90001CB914790CB90024946023B10029917810
:100BA0001AD089B11DE0E1B191780029D17805D042
:100BB000B9B91179A9B96FF031010BE089B911798F
:100BC00079B96FF0630105E0D17851B9117941B974
:100BD0006FF09501916004E019B9D17809B91179E4
:100BE00009B110B109E01049F4E7917829B1D17841
:100BF00019B1117909B9322191609178084305D171
:100C0000D17819B1117959B196219160D178084301
:100C100005D11079002802D04FF49670906010BD75
:100C20006421F2E748000020D4FEFFFF4068C007BF
:100C300000D001207047416070478160704700001C
:100C4000036A43F0100303620AB10E4A00E00E4A41
:100C500002EB820301EB830302EB820292005B1E34
:100C6000B3FBF2F2521EC260D0F8C02FD20708D0F8
:100C7000064A1144521CB1FBF2F1491E41F08001B9
:100C8000C1607047801A0600A08601007F473701C7
:100C900042EA4101016070472DE9F0410D461D4FC8
:100CA0009046014600223846FFF7F2FF2978384681
:100CB000FFF7C3FF03213846FFF7BDFF0124A8F16A
:100CC00001060EE03846FFF7B1FF0028FAD1295D92
:100CD0003846FFF7B2FF01213846FFF7ACFF641C2E
:100CE000E4B2B442EED33846FFF7A0FF0028FAD1B1
:100CF00005EB080010F8011C3846FFF79EFF0521A0
:100D00003846FFF798FF3846FFF790FF0028FAD1E2
:100D1000BDE8F0810000024010B5124C204600F002
:100D2000A7FB204600F0B8FB0F4800F0A1FB0F48DE
:100D3000FFF768FE0E48FFF765FE0E4C04212046C3
:100D4000FFF7A1FE08212046FFF78FFE00F072FAA0
:100D5000014600220848FFF773FF09490748086069
:100D600010BD0000002000F0010800F003080100A1
:100D7000030C0100005000400000024040D3C404B6
:100D8000040F02401449042812D0052814D0062864
:100D900017D00F2819D0102809D3103800F01F02DF
:100DA000012191400D4A400952F82000016070472E
:100DB000086840F4803002E0086840F400300860C1
:100DC0007047086840F48020F9E74FF0E02001699F
:100DD00041F002010161704724ED00E0A8380000F5
:100DE00010B5FFF7AEFA002800D0012010BD0000BA
:100DF000074A10B520F00303D25813688007C00ECD
:100E0000FF248440A34381401943116010BD0000BA
:100E10000C38000070B5094D2A68094CA24209D06F
:100E20002B68002253F8226044F82260521C9B2A4F
:100E3000F8D32C6044F8201070BD000008ED00E0ED
:100E40000004002010B5134CA078012821D120788F
:100E5000401CC0B22070022809D30020207000F08E
:100E60007DFD84ED080A00F053FD84ED0A0A94ED3F
:100E7000080A094800F09EFE94ED0A0A074800F0AF
:100E800099FE00F0CFFE84ED070A00F097FE84ED96
:100E9000090A10BD14000020B8070020E007002058
:100EA00010B5114800F0E4FA104C03212046FFF77A
:100EB000CEFD0C212046FFF7CAFDFE22012120466F
:100EC000FFF70BFEFD2202212046FFF706FEFB2264
:100ED00004212046FFF701FE2046F722BDE810401E
:100EE0000821FFF7FABD0000030800F00070004081
:100EF00070B50C46051E40F2CA3602D003DD002054
:100F000003E0012506E04542012000F011FEB54254
:100F100000DD3546002C03D005DD4FF0000006E073
:100F20004FF0010408E0C4F100044FF0010000F0AC
:100F3000E7FDB44200DD3446A1B2A8B2BDE870407E
:100F400000F026BE08440168074B194011430160B8
:100F5000910703D5B0210162090103E08C210162F0
:100F600040F60C01416270470100F8FF425842F020
:100F700001024250704708440168890702D55108B0
:100F800001617047521E02617047002A826801D0D9
:100F90000A4300E08A438260704721F03F0318440F
:100FA00003689B0700D5520803699A1AC90701D044
:100FB000C2617047826170472E489FED2D0A9FEDF8
:100FC0002E1B80ED000A80ED010A80ED021B80EDF2
:100FD000040ADFED2B0A80ED080AC0ED050ADFEDFB
:100FE000290A80ED060AC0ED070A5038DFED260A0F
:100FF00080ED000A80ED010A80ED021B80ED040AFD
:1010000080ED080AC0ED050ADFED200AC0ED060AF2
:10101000DFED1F0AC0ED070A7830F5EE000A80ED1B
:10102000000A80ED010A80ED021B80ED040A80EDCC
:10103000080AC0ED050A80ED060A80ED070A50385F
:1010400080ED000A80ED010A80ED021B80ED040AAC
:1010500080ED080A9FED0F0A80ED050A9FED0E0A4C
:1010600080ED060A9FED0D0A80ED070A704700002B
:101070000000000008080020000000000000000040
:1010800048E17A3E6F12833A9A990940295CAF3F52
:101090000AD7233C295C4F40EC51D83F0AD7A33CE8
:1010A00010B54FF4801000F0D9F9134800F0E0F9C2
:1010B000124800F0DDF9124C10212046FFF7F1FC38
:1010C00020212046FFF7EDFC0E48FFF79BFC0E4861
:1010D000FFF798FC0D4C002280212046FFF732FFDD
:1010E00040F2E73280212046FFF745FF2046BDE869
:1010F00010408021FFF73ABF010800F0004000F0E7
:10110000005000400410010004140100008002405F
:10111000036823F01E030B430360C260704701683D
:1011200041F001010160704780687047816070473D
:1011300070B5344800F09CF93248401C00F098F932
:10114000314800F095F93048401C00F091F92F48E3
:10115000FFF758FC2E4C20212046FFF7B0FC2D480D
:10116000FFF750FC40212046FFF7A9FC2A48FFF773
:1011700049FC2A4D40212846FFF7A1FC294A28496D
:1011800011608020111D08602748FFF73BFC80217B
:101190002846FFF794FC0823022220212046FFF76F
:1011A000A2FB0823022240212046FFF79CFB0823D4
:1011B000022240212846FFF796FB082302228021C5
:1011C0002846FFF790FB194C4FF6FF752A46082179
:1011D0002046FFF79DFF2A46154D08212846FFF7B8
:1011E00097FF00212846FFF7A1FF00212046FFF7C7
:1011F0009DFF2846FFF793FF2046BDE87040FFF7AC
:101200008EBF0000020800F0004400F00614020047
:10121000006000400618020006180300007000403D
:101220004B434F4C20750040061C030000D0024089
:1012300000C00240F0B5454E326E316F002902DA2F
:1012400001F0700001E002F03000202812D003DC31
:1012500040B1102804D10BE030280DD070280ED0FA
:101260000020F0BD7C203A4B00EA1210185808E02C
:10127000384806E0384804E047F2305001E04FF4C7
:1012800000404FF0FF33002901DA0C0505D501F0CD
:10129000004402F400652C4336D1D6F86041D6F8FC
:1012A000645105F01F07C5F304256D1C7F1C17FB57
:1012B00005F56D00B0FBF5F0C4F309054543C4F333
:1012C00089246043346905EB902042F4800204F4E1
:1012D0007044B4F5804F12D006DCB4F5005F0AD03C
:1012E000B4F5405F10D108E0B4F5E04F09D0B4F593
:1012F000104F09D107E0194B06E0194B04E0194BD8
:1013000002E0194B00E0194B540217D5002919DAF5
:101310004C0007D50C050BD501F0004402F4006227
:10132000144305D0C1F3C551491CB0FBF1F005E0F1
:101330004200C1F38650401CB2FBF0F0834290D2D1
:101340001846F0BDC2F3C351EEE7000000E00F40C5
:10135000003900000024F40000093D0000B4C4047A
:1013600080F0FA02005A620240787D01002D3101BE
:1013700030B4364C216E236F21F4800141F40062B9
:1013800043F400652266256722EA0001C9070ED0F2
:1013900060F001010A40A115A1652266C90201E0C1
:1013A000491E50D0236DDB05FAD500294BD022F41D
:1013B000FE6200F4FE611143254A00F00803154067
:1013C000234A2166A13202402A4342EAC30222672D
:1013D00021F4005300F400510B4322F40052114356
:1013E0004FF04002A26502D52167236601E0236623
:1013F0002167184A1340D24302401A4321F0FC539C
:1014000000F0FC511943430007D5134B21F4800130
:10141000034042F480020B4301E021F080430005C9
:101420000BD44FF40041D4F86801C00701D1491E24
:10143000F9D122F4006223F400632266236730BCF2
:101440001020FEF78BBF30BC7047000000E00F405B
:101450008FFFFF7FFEFF3FF80000404003490A6E08
:1014600022F4F01202430A667047000000E00F40C9
:10147000C0F307230749C0B2194401F07043C1F318
:10148000130143EA411141EA800040F0007001225B
:101490000260704700E60F4008B5C0F307230C490F
:1014A000C0B2194401F07043C1F3130143EA411182
:1014B00041EA800040F0007101220A60002200929F
:1014C0000098401C00901028FAD30A6008BD000064
:1014D00000E50F404FF0E020016941F00501016196
:1014E00070474FF0E020016941F00201016170474F
:1014F00010B501460F20FFF78DFC4FF0E020016989
:1015000041F00201016110BD4FF0E021401E486131
:101510007047000009490888401C0880084908886D
:10152000401C088007490888401C80B20880B0F53C
:10153000FA7F01D3002008807047000004000020DB
:10154000020000200000002010B5FFF773FE4FF4EA
:101550007A71B0FBF1F0FFF7D7FF0448FFF7C8FF3F
:10156000FFF7BFFFBDE81040FFF7B4BF151500003F
:101570001648016841F47001016016491448086773
:1015800015480866154808661548086700204FF496
:101590007A72401C9042FCD31248086612480867D1
:1015A0000020401C9042FCD310480866086D40069D
:1015B000FCD50F4808664FF0C0700867002042F263
:1015C0001071401C8842FCD37047000088ED00E099
:1015D0001028800700E00F40D13A8E07422D9E016F
:1015E00000288001420D9E0100088001420DDE01AD
:1015F0004205DE012DE9F041504C01212DED028B19
:10160000204600F029F90146204600F012F94C4C22
:10161000A069401CA06128287ED14FF00008C4F8C2
:101620001880FFF75DFAFFF7A7FA464D4FF4A5675C
:10163000286890FBF7F001F0CCFC9FED438B53EC56
:10164000182B01F019FD01F057FA414EE0623068A5
:1016500090FBF7F001F0BDFC53EC182B01F00CFDF2
:1016600001F04AFA3B492063884201DB00F078FA36
:10167000607801282BD1A078012828D1FFF7E2FB60
:101680003548016839B928683268104400EBD070D9
:1016900040102860306000EE101AB8EEC00A84EDE9
:1016A000040AD4ED070A70EE800AC4ED020A94ED34
:1016B000091A31EE400A84ED030ABDEEC00A10EEAD
:1016C000101ABDEEE00A10EE100AFFF711FCE078E8
:1016D00001282ED1A07801282BD1FFF7B3FB94ED80
:1016E000070A84ED020A94ED090A84ED030A2079C1
:1016F000401CC0B22071322809D384F803809FEDCA
:10170000170A84F8048084ED020A84ED030ABDEE12
:10171000C00A10EE101A00E00BE094ED020ABDECD6
:10172000028BBDEEC00ABDE8F04110EE100AFFF7D3
:10173000DFBBBDEC028BBDE8F08100000000034080
:10174000140000200C000020295C8FC2F568344092
:10175000100000200000C8425000002000000000DF
:1017600010B51548FFF784FE154C1449204600F0CB
:101770002BF8FFF75FFD4FF47A71B0FBF1F2FF2118
:101780002046521E00F06DF80E4AFF21204600F060
:1017900056F80121204600F04EF800212320FFF7E3
:1017A00027FB2320FFF7EEFAFFF71AFB2046BDE8E0
:1017B0001040FF2100F036B8000400F032000004B1
:1017C00000000340F515000030B5C26840F2011377
:1017D0009A43C2600A0E02600F4A14680F4A104D05
:1017E0001440CBB2C1F30722AC420DD14FF4704488
:1017F00004EA11151D4345F40073436004EA112106
:10180000114341F4007104E043F40071416042F47B
:101810000071816030BD000000E00F400000FF70EB
:1018200000000A10C26840F2011319400A43C26066
:1018300070474162704782690A438261704770B5A0
:10184000154600F037F804462946FFF7E3FA20462C
:10185000BDE87040FFF796BA09B1006A7047C069E9
:10186000704711F0FF0F00D0826211F47F4F00D05B
:10187000C262704710B504460A4B0B4A0B4900F090
:10188000A1FB204600F0E4FE0021204600F0F0FE1F
:10189000204600F08DFA2046BDE81040044900F0D3
:1018A00048BB00006D2A000025270000804500008D
:1018B000EC3B000030B5104A0E4B0C2412680F4D63
:1018C0002A400F4DAA4201D16033082400220CE0C7
:1018D00053F83250854207D103EBC200B1F57F4F78
:1018E000406800D1401C30BD521CA242F0D3002001
:1018F00030BD00004C3B000000E00F400000FF70D6
:1019000000000A1040F66C414843401EFDD270476B
:101910000C4810B590ED000A0B48B8EEC00A00F074
:1019200043F810EE100A0949884202DD9FED080ACB
:1019300010BD10EE100A07498842F9D99FED060A3A
:1019400010BD000010000020300800200000F04210
:101950000000F0420000F0C20000F0C20C4810B5D8
:1019600090ED000A0B48B8EEC00A00F01DF810EE2A
:10197000100A0949884202DD9FED080A10BD10EEE9
:10198000100A07498842F9D99FED060A10BD0000E8
:101990000C000020080800200000F0420000F04287
:1019A0000000F0C20000F0C210B504462DED088B17
:1019B000D0ED000A30EEC00A10EE100A01F086FDEC
:1019C00041EC100B9FED331B84ED020B53EC112BFC
:1019D00001F050FC12D894ED020B9FED301B51EC3E
:1019E000100B53EC112B01F00BFB07D89FED2D0BC7
:1019F00084ED020B9FED2D0A84ED080A206A01F0A8
:101A000065FD94ED028B53EC182B01F0A7F801F063
:101A100073F80BEE100A84ED08BA206901F056FD48
:101A200053EC182B01F05CFC41EC190BE06901F060
:101A30004DFD53EC192B01F01FFB94ED060A41EC10
:101A40001A0B20EE0B0A10EE100A01F03FFD41ECDC
:101A5000190B606901F03AFD53EC182B01F00CFBF7
:101A600053EC192B01F07AF853EC1A2B01F076F8AD
:101A700001F042F800EE100A51EC180B84ED010A57
:101A8000B0EE409A01F038F82061B0EE490ABDECA2
:101A9000088B10BD9A9999999999B9BF9A99999972
:101AA0009999B93F0000000000000000000000000C
:101AB000FEF764FE6420FEF77FFE0D4C0D4E002500
:101AC0002088C828FCD325800B4800F071F90A480B
:101AD0000AA194303268FEF7CFFC074B14229433EE
:101AE0000A21054800F0FCF9034800F019FAE7E77D
:101AF00002000020500000206C0600202564000039
:101B000010B50A4C58B1FE2201212046FEF7E5FF30
:101B100002222046BDE810400221FEF7DEBF01226E
:101B200011462046FEF7D9FFFD22F2E70070004083
:101B300010B50A4C58B1042211462046FEF7CDFFDD
:101B4000F7222046BDE810400821FEF7C6BFFB2261
:101B500004212046FEF7C1FF0822F2E70070004092
:101B600003490020024688700C210248FFF70DBA95
:101B700014000020008002400349012002468870C2
:101B80000C210248FFF701BA140000200080024037
:101B900070B5074C0D46024683212046FFF7FDF93C
:101BA0002A462046BDE870408221FFF7F6B90000C2
:101BB0000080024080ED000A70470000114810B517
:101BC000B0F9000001F005FA9FED0F1B53EC112B4B
:101BD00001F052FA9FED0E1B53EC112B01F04CFA61
:101BE0009FED0D1B53EC112B01F06CF801F0C2F9C5
:101BF00000EE100ABDE81040B8EEC00A084800F038
:101C000045B800000A0000200000000000408F409E
:101C10000000000000004E400000000000C8E94045
:101C2000E0070020114810B5B0F9000001F0D1F92B
:101C30009FED0F1B53EC112B01F01EFA9FED0E1BB5
:101C400053EC112B01F018FA9FED0D1B53EC112BE7
:101C500001F038F801F08EF900EE100ABDE81040EE
:101C6000B8EEC00A084800F011B8000008000020D3
:101C70000000000000408F400000000000004E40C7
:101C80000000000000C8E940B807002010B5044675
:101C90002DED068BD0ED000A30EEC00A10EE100AD2
:101CA00001F014FC41EC100B9FED371B84ED020B8F
:101CB00053EC112B01F0A4F90ED294ED020B9FED21
:101CC000341B51EC100B53EC112B01F0D3FA03D25F
:101CD0009FED310B84ED020B206A01F0F7FB94EDD0
:101CE000028B53EC182B00F039FF00F005FF2C4954
:101CF0002062884202DB9FED2B0A04E02A498842D9
:101D000003D99FED2A0A84ED080A206901F0DEFB61
:101D100053EC182B01F0E4FA41EC190BE06901F0E7
:101D2000D5FB53EC192B01F0A7F994ED060AD4ED7D
:101D3000080A41EC1A0B20EE200A10EE100A01F0FE
:101D4000C5FB41EC190B606901F0C0FB53EC182B8B
:101D500001F092F953EC192B00F000FF53EC1A2B11
:101D600000F0FCFE00F0C8FE00EE100A51EC180B6B
:101D700084ED010AB0EE409A00F0BEFE2061B0EEA4
:101D8000490ABDEC068B10BD000000000000E03FDA
:101D9000000000000000E0BF0000000000000000A4
:101DA00000007A4400007A4400007AC400007AC43B
:101DB000016890F83820097C12FB01F1C900406BE2
:101DC000FEF7DEBB2DE9F041044690F870001F4697
:101DD00015460E4630B1012809D002280CD0032840
:101DE00015D10FE0E16D20468847284408E0E16DF9
:101DF00020468847301A09E0E16D20468847281AB6
:101E000085B204E0E16D20468847304486B228461A
:101E1000A4F86460A4F8660039460025204600F066
:101E2000C0FA010003D0204600F0EDF985B2284643
:101E3000BDE8F0813FB581B0044690F88C00089968
:101E4000002839D0BDF81000002835D0012811D95C
:101E5000022902D0032907D00CE0BDF80820101A8F
:101E6000401CADF8080005E0BDF80C20101A401C1D
:101E7000ADF80C0011F0010520D0B4F84810BDF801
:101E80000800814218D8B4F84A10814214D9B4F835
:101E90004E30B4F84C2004A903A800F02BF9002818
:101EA0000AD00095206BBDF81030BDF80C20856875
:101EB000BDF808102046A84705B030BDB4F84C1056
:101EC000BDF80C008142F7D8B4F84E108142F3D926
:101ED000B4F84A30B4F8482004A902A8DDE70000AD
:101EE00030B4024C446030BC00F031B9D926000057
:101EF00070B50D461E460446B0F84E10B0F84C00C2
:101F0000049B00F0ABFA002809D0B4F84A10B4F8EA
:101F1000480033462A46BDE8704000F09FBA70BDC5
:101F200010B5044600F029FB2046BDE8104000F043
:101F300097BB10B50446806D884209D004F1740047
:101F4000A16500F0E5FA2046BDE8104000F056B863
:101F500010BD00000149C16570470000BB210000B1
:101F60000021A0F85010A0F854104FF6FF71A0F80F
:101F70005210A0F85610016B4968084770B5044626
:101F800000250498A565E362616384F8382084F82D
:101F9000395084F86D5084F8915084F88D500121A7
:101FA00084F8921084F893102063016820468847D3
:101FB0002046FFF7D5FF2046FFF7CCFF84F870508E
:101FC00070BD00007CB50C46009313460546084AD8
:101FD000084900F055FB01A800F094FA0146064BB1
:101FE00000949DF804202846FFF7C8FF7CBD000040
:101FF0003D280000652900007524000010B5816DA2
:1020000000291AD090F9813080F88E3090F9822022
:1020100080F88F2090F88D1000290ED001290DD066
:1020200090F97E4090F980100C449C4201DD80F8CC
:102030008E408A4201DD80F88F1010BD90F9831028
:102040008B4201DA80F88E1090F98410F1E72BB101
:10205000012B05D0022B06D0104402E0084400E01A
:10206000801A80B27047401AFBE72BB1012B05D0D4
:10207000022B06D0401A02E0104400E0084480B26F
:102080007047801AFBE738B50446B0F85600009058
:10209000B4F85230B4F85420B4F850102046FFF78A
:1020A00027FF18B3012084F88C00B4F84810B4F866
:1020B0005000814201D2A4F84800B4F84A10B4F8A4
:1020C0005200814201D9A4F84A00B4F84C10B4F887
:1020D0005400814201D2A4F84C00B4F84E10B4F878
:1020E0005600814201D9A4F84E0038BD002084F882
:1020F0008C0038BD30B504880D882544ADB2AC42A3
:1021000005D99C4202D25D1EADB200E014469C424D
:1021100001D2954201D8002030BD944200D214462D
:102120009D4200D91D460480281B0880012030BD37
:1021300038B5C58F049C0094521BC46A92B2A04764
:1021400038BD38B5049C0094FFF7F2FF38BD2DE987
:10215000F0471E4614460D46804600F0C9FC002795
:102160004FF6FF79D8F8042031784046904703466F
:1021700048451FD0761CA3F57F40FE38F2D022469A
:1021800029464046FFF71EFE98F8701031B101292C
:1021900006D0022906D0032909D106E0291802E059
:1021A000211803E0291A8DB201E0211A8CB23844BB
:1021B00087B2D7E73846BDE8F0870020704710B5F2
:1021C0000C4600F006F80122641EA240801A40B2BC
:1021D00010BD30B50568047B2B78E3406218D2B29D
:1021E000082A09D36D1C05602D78C4F10804A540A8
:1021F0001D43083AEBB2D2B201248C40641E1C404D
:102200000273204630BD2DE9F843054600F1600415
:1022100000F00AF915F96B6F2046E97BFFF7CFFF55
:102220008146297C2046FFF7CAFF0746697C204685
:102230006B3DFFF7C4FF804694F90A00002856DD85
:10224000F019404242B2237C1746A0884946FFF766
:10225000FEFEA080237C3A46E0884946FFF705FF52
:10226000E080A188277C02460B4637B1012F0AD0B7
:10227000022F3FD0032F0FD145E094F90A7030446C
:102280003B449BB207E0891B491C94F90A705B1C14
:1022900089B29BB2384480B200902846FFF728FEEE
:1022A00028B300202072607295F876102046FFF760
:1022B00090FF814695F877102046FFF78AFF074682
:1022C00000224946284600F027F8012239462846D0
:1022D00000F022F801212046FFF77BFF0028EFD114
:1022E00094F90900B042DFDBA07B85F892004046FC
:1022F000BDE8F88394F90A705B1CC91B491C89B2BC
:102300009BB2921B04E094F90A7033449BB2D21B37
:10231000521C92B2401CBEE72DE9F74F00F1600459
:1023200090F86880677A84B00D468146A07AA0EB69
:102330000800C6B2B246B54200D2AA46A088E188DB
:102340000291237C7AB24FFA88F18B460092FFF714
:102350007EFE0190237C5946009A0298FFF785FE85
:102360000246069808B1A17B02E0607B48B9E17B98
:1023700089F89210207C0090534648460199FFF757
:1023800059FDB54206D3A81B7F1CC5B24FF000080B
:10239000FFB2CBE708EB05002072677207B0BDE81B
:1023A000F08F70B50D460146806D1730FF2D10D8A7
:1023B000612D02D3B1F8881003E0412D02D3B1F8AA
:1023C00086100844417819B30278AA42F9D1801CDA
:1023D00070BDB1F88A100C1826460021304600F076
:1023E00019F804440221304600F014F8361DA842C2
:1023F000F3D34FF6FF72207802EA00216078084399
:1024000006D0A84201D1E01C70BDA0780444F2E7D8
:10241000002070BD08444FF6FF720178407802EA50
:102420000121084480B2704730B5054600F16004D0
:1024300001660020207315F8781F2046FFF7C9FEBB
:10244000A07269782046FFF7C4FEE072A87EA073F0
:1024500010B10020E07330BD0120FBE78A4205D2B5
:10246000834201D89A4203D9012070478342F9D8A8
:1024700000207047F0B502F007060124B4400025A3
:1024800090F892E0E7B2DDF814C02C46BEF1010FDF
:1024900001D83D4600D03C46076822F00702BCF157
:1024A000000F3F7C07FB02F7426BBFB23A44114476
:1024B00009D108785B1E284360401B0401F8010B1A
:1024C0001B0CF6D1F0BD0A78761C2A436240A3F1BA
:1024D00001030A7016F007069BB206D06A06150EB5
:1024E0006206140E002BEED1F0BD428F114490F81D
:1024F0009220012A02D84FF00105F3D04FF00104D9
:10250000F0E70000082101700048704758080020DB
:1025100070B5044608782070487860708878A0709C
:10252000C878E070087920714879607188790D4623
:10253000A071E879E071287A2072687A6072A87ACE
:10254000A072E87AE072287B2073687B6073A87BB6
:10255000A073E87BE073287C207411212846FFF7E4
:1025600059FF608213212846FFF754FFA0821521EE
:102570002846FFF74FFFE08270BD2DE9F84307467C
:1025800090F8389090F83950006800244FF6FF78A2
:10259000467C396838462A460B7C796B04FB03FC81
:1025A0001FFA8CFC08EACC0C61440091002100F079
:1025B00040F8641C6D1CE4B2EDB24C4501D2B5424A
:1025C000E7D3BDE8F883F0B590F838204FF6FF76F2
:1025D000016806EAC20383870B7C06EAC3034387CC
:1025E00090F8393006EAC304C4874D7C9F18AF4287
:1025F00001D9EA1A92B206EAC20220F8404F2244F8
:1026000042808A8A8280C98AC180F0BDFFF7DBBF21
:102610000021A0F84810B0F84410A0F84A10B0F813
:102620004010A0F84C10B0F84210A0F84E10FFF780
:102630002ABD1CB58DF805108DF80620049C8DF878
:1026400004300094012284686B460F21A0471CBD12
:1026500030B484680023A44630BC1A460A2160477F
:1026600030B484680023A44630BC1A461021604769
:1026700030B484680023A4460A4630BC0B2160476E
:102680002DE9F04116460D460446069F00F00AF873
:102690006761A560C4E903632046BDE8F04100F02E
:1026A00013B80000002140F8081B064A026042608F
:1026B0008260C260C17681770161FF21017780F875
:1026C00020107047692A000030B484680023A446B3
:1026D00030BC1A4609216047080001D00A2801D100
:1026E0004FF6FF70704730B404690023A44630BC35
:1026F0001A461921604713B501AA012100F001F81B
:102700001CBD30B404691346A4460A4630BC1721E8
:10271000604730B404690023A44630BC1A4618212F
:102720006047000070B5154C18290ED004DC142940
:1027300008D0172904D10BE0192916D020291BD065
:10274000002070BDFEF7E8FA16E00020207013E0CC
:102750000B4907E0207813F8015B0D54401C521E12
:102760002070D2B2002AF5D106E090F82400227839
:1027700040080349FEF790FA012070BD05000020D3
:102780003207002030B4C4680023A44630BC1A4687
:102790001921604730B4C4680023A4460A4630BCFF
:1027A0001621604730B4C4680023A4460A4630BCF2
:1027B0001521604730B4C4681346A4460A4630BCAD
:1027C00017216047F8B50C46054614F8011B182977
:1027D00024D00EDC152919D0162917D0172923D19A
:1027E00020788DF800006A4601212846FFF7E2FFB5
:1027F0000AE0192912D0FE2916D122788DF800207E
:102800002921284600F058F9641CDEE722788DF86B
:102810000020EE6800232846B047F5E70023EE6865
:102820001A462846B047D0E7F8BD30B4C468002344
:10283000A44630BC1A461821604700002DE9F0413B
:10284000DFF8B08014460546A1F11402002698F87E
:1028500000001F46062A4AD2DFE802F02F03161BAB
:102860003E4310B12846FFF73EFF2846FFF751FFD1
:1028700000212846FFF73FFF21462846FFF73BFF90
:10288000012088F8000029E021462846FFF733FFA1
:1028900024E050B12846FFF726FF06E0182128461D
:1028A00000F010F9183CE4B21837182C3A46F5D865
:1028B0002146284600F006F90EE095F82400FF288E
:1028C00002D1782085F824002E693B46224628460E
:1028D000B446BDE8F041604788F800600120BDE8DB
:1028E000F0810028F8D02846FFF7FDFEF4E700202D
:1028F000F5E700005400002070B500234569044648
:102900001A462821A8470023E5681A4614212046C4
:10291000A84701224B21204600F0CEF8206829214B
:102920000279204600F0C8F800224B21204600F032
:10293000C3F8206829210279204600F0BDF8012261
:102940004B21204600F0B8F8206829214279204622
:10295000BDE8704000F0B0B80160897C80F82210BA
:102960007047000070B50C46054600F019F888B9AC
:10297000092C0BD00A2C01D0002070BD2846FFF78F
:10298000BBFF05492846FFF71DFF03E00349284622
:10299000FFF7E2FF012070BDB2450000B446000021
:1029A0002DE9F0411E46144605460B2908D00D2995
:1029B0000ED00E291DD00F2926D00020BDE8F081B1
:1029C0001AB12849FFF7FEFE49E02649491FF9E7F9
:1029D00042B124490C31FFF7F5FE2868C07C85F828
:1029E00022003CE01F49491DFFF7ECFE2868807C6F
:1029F000F5E7FFF71AFF81212846FFF7D3FE2146AE
:102A00002846FFF7C7FE27E0FFF70FFF707995F81C
:102A1000221001EBC000C7B240212846FFF7C2FEDA
:102A2000102040EA17112846FFF7BCFE07F00F01FF
:102A30002846FFF7AFFEB07940F0B0012846FFF717
:102A4000A9FE30793268C006010E2846FFF7B2FEB3
:102A5000641E14F0FF04F4D12846FFF793FE012012
:102A6000ACE70000914500000020704700B54D29FB
:102A700019D00CDC2B2916D004DC292915D02A29E1
:102A80000ED110E02D290ED04C2909D10BE00022E7
:102A900050290ED051290CD052290AD0532908D0E0
:102AA000012180F82710012000BD1046FEF72AFF03
:102AB000F9E780F82720F6E730B444690023A446FC
:102AC00030BC60472DE9F04116460F460446FFF73B
:102AD00020FE40212046FFF70EFE256933463A4688
:102AE00017212046A8472046BDE8F041FFF7FBBD6F
:102AF000002180F82610704721F00042A2F16052B8
:102B0000B2F5801F01F0004328BFD2F17F6C0BD9D2
:102B10005FEA001C43EAC20242EB507018BF7047E4
:102B200028BF20F001007047B2F5801FBCBF1846D7
:102B300070474FEA410C1CF5001F02D2084600F016
:102B40003BBD70B500F042FB00000089FFF7F6BF07
:102B50004FF00040A0F580007047000010B591EAEA
:102B6000030F48BF83F0004300F1CE83841A71EB5A
:102B7000030C05D2121943EB0C03001B61EB0C0193
:102B8000DFF824E14FEA1154A4EB135C1EEA430F73
:102B900018BF9EEA445F73D023EA0E03DCF1200ED7
:102BA00021EA045143F4801332D322FA0CFE10EBD5
:102BB0000E0023FA0CFE41EB0E01CCF1200E03FABD
:102BC0000EFE10EB0E0051F10001B1F5801FCCF1AB
:102BD000200E32D201EB045112FA0EF2BDE8104081
:102BE00058BF7047401C38BF5FEA420218BF7047A9
:102BF000002814BF20F0010041F100014FEA410319
:102C000013F5001F38BF7047A1F1C04100F02CBB85
:102C1000012A43EB0302ACF1200CDCF11F0E32BFA2
:102C20004FF0000E23FA0CF310EB030041EB0451BC
:102C3000B4EB115FD0D0A1EB045101F5801149082C
:102C40005FEA300001EB04510ED350F1000038BFB1
:102C500012FA0EFE08D1BDE81040C9E7401C38BF8B
:102C60005FEA4202CAD1C3E7BDE810404FEA410320
:102C700013F5001F38BF7047A1F1C04100F0F4BA4E
:102C80009EEA445F08D011EA5E0FBDE8104004BF21
:102C900001F0004100207047BDE8104070B500F021
:102CA00095FA00BF64FBBE3E0000E0FF491058BF2C
:102CB000C1F140415B1058BFC3F140438B42EFF379
:102CC000008070472DE9C04130B4DFF8A0C23CEA73
:102CD000111418BF3CEA131400F0EC8081EA0305DC
:102CE0001CEA111444EAD57418BF1CEA131500F04D
:102CF000C780A4EB05044FF0004545EAC12145EA31
:102D0000C32341EA505143EA525304F17F7499427C
:102D100004F500344FEAC0204FEAC22208BF9042B7
:102D200000F09C804FEA13650FF24016765D4FEA83
:102D3000134506FB05F7C7F1807706FB07F74FEA57
:102D4000D737A7FB03687642C8F58038A7FB06CEC5
:102D500038BFA8F1010807FB08E64FF0000EA6FBFC
:102D6000028CE6FB03CEDCF1000CCEF1004E38BF46
:102D7000AEF1010EA6FB0C584FF000074FF0000516
:102D8000E6FB0E87A1FB08C6A0FB07CE16EB0E06DE
:102D900045F10005E1FB076515F1E04E7EBFA4F5A6
:102DA00080345FEA46066D4116F1800745F1000563
:102DB0004FEA17274FEA066647EA0567A6F1DE469F
:102DC000B6F1805F4FEA15251FD9384624F0010C73
:102DD00005EBC471BCF1FE6F01EB0C1102D8F0BC25
:102DE000BDE8008124425CBF01F5801E9EEAC47FDD
:102DF00002D4F0BCBDE80081244238D4F0BCA1F17B
:102E0000C041BDE8004100F02FBA4FEAD22242EAA9
:102E100043524FEAD323A7FB02864FEAD02040EA71
:102E2000415007FB03661EEA0E0F4FEAD12105FB56
:102E3000026658BFA6EB0056B6EB00564FEA520E9C
:102E40004EEAC37E18EB0E0E56EB530EBDD518EBB3
:102E500002085E417F1C55F10005B6E74FF480156E
:102E60004FF000074FF000064FF00008ADE7F0BC50
:102E70004FF0000001F1C04101F00041BDE80081C8
:102E800011EA0C1F0CEA131500D00CE013EA0C1F1A
:102E900000F025804FF00000F0BC81EA030101F052
:102EA0000041BDE80081F0BCBDE8004181EA0301BA
:102EB00000F0DAB9F0BCBDE8004170B500F086F969
:102EC000097EFC3E00F007B881EA03014FF00000E4
:102ED00001F00041704781EA030100F0C5B9F0BC80
:102EE000BDE800414FF0000021497047FFFDFBF9AC
:102EF000F7F5F4F2F0EEEDEBE9E8E6E4E3E1E0DE2D
:102F0000DDDBDAD8D7D5D4D3D1D0CFCDCCCBCAC89E
:102F1000C7C6C5C4C2C1C0BFBEBDBCBBBAB9B8B7C5
:102F2000B6B5B4B3B2B1B0AFAEADACABAAA9A8A8B8
:102F3000A7A6A5A4A3A3A2A1A09F9F9E9D9C9C9B86
:102F40009A99999897979695959493939291919031
:102F50008F8F8E8E8D8C8C8B8B8A898988888787C2
:102F60008685858484838382828181800000FF0737
:102F70000000F87F4FEA41034FEA5353A3F5806303
:102F8000D3F11E03C8BFD3F1210C0CDD4FF000427A
:102F900042EAC12242EA505232FA03FC8CEAE17C56
:102FA000ACEBE1707047102BC4BF0020704703F5F5
:102FB000787CBCF1FF3F04D06FF0004282EA210030
:102FC000704770B500F002F94992248000207047E4
:102FD000F2E710F0004248BF4042B0FA80F310FA26
:102FE00003F10AD0C3F11D0303F580634FEA41509A
:102FF00002EB035202EBD12170474FF00000704703
:1030000051EA030C17D41CF5801F58BFBCF5801F74
:1030100000F10680994218BF704708BF9042704780
:1030200007D711F5801F58BF13F5801F19D4994297
:103030007047894270471CF5801F08D5BCF5801F7A
:10304000F7D58B4218BF704708BF824270474FF4D4
:10305000001C1CEB410F38BF1CEB430F01D28B420D
:10306000704770B500F0B2F8922449004FF000515B
:103070004FF08053FFF71ABEDFF848C170B51CEA65
:10308000111E1EBF1CEA13159EEA0C0F95EA0C0FC9
:1030900000F06F8081EA030423EA4C134EEAD47EE9
:1030A00021EA4C1141F4801143F48013AE44A1FB9A
:1030B000024CA0FB0365AEF17F7E361955EB0C0583
:1030C000A1FB034C4CF10003A0FB021C16EB0C0609
:1030D000654153F10003094218BF46F0010613F49D
:1030E000007F0BD14FEA03314FEA0530340341EA48
:1030F000155140EA16506FF003020AE04FEAC3216F
:103100004FEAC520F40241EA555140EA56506FF0AB
:10311000020202EB2E4201EB025585EACE710AD083
:103120005FEA440C18BF24F0004450F1000041F164
:10313000000120EAD47040F2FE7C624500D270BDEE
:10314000A84214BF4FF080444FF04044002E08BF07
:103150000024BEF1806FA8BFA1F1C041BDE870405E
:1031600080F282804FF0000001F1C04101F0004187
:1031700070479EEA0C0F0CEA131518BF95EA0C0F66
:1031800006D04FF0000081EA030E0EF0004170BD42
:1031900000F01CF88900013E00F007B800F009B803
:1031A0004FEA430C5FEA5C5C08D081EA030100F05F
:1031B0005BB84FEA410C5FEA5C5CF6D14FF000006F
:1031C000014970470000FF070000F87F0EF1020E72
:1031D0002EF0030E5EF8046B364205D4012A43EB51
:1031E000030515F5001F12D8012841EB010C1CF551
:1031F000001F0CD80ED14FEAD17C15F5001F0CEB47
:103200004C0C0CF1020C08BF4CEBD37C04E04FF0EB
:10321000080C01E04FEAD37C0CEB4C0526FA05F6CE
:1032200006F00706B6F1040C06D20EEB860CBDE8DC
:1032300070404CF0010C6047DFE80CF0090B020213
:103240004FF000414FF00000A1F5002170BD19467C
:103250001046012851EB010418BFD4F5001484BFB7
:10326000002001F0004170BD0808A0F500114FEAF0
:103270003101704753EA010C17D41CF5801F58BF69
:10328000BCF5801F00F106808B4218BF704708BF55
:103290008242704707D713F5801F58BF11F5801F72
:1032A00019D48B4270479B4270471CF5801F08D58C
:1032B000BCF5801FF7D5994218BF704708BF9042F0
:1032C00070474FF4001C1CEB430F38BF1CEB410F41
:1032D00001D2994270470FB40CBC03BCFFF7C1BECA
:1032E00091EA030F10B581F000413FF53FAC83F048
:1032F000004300F009B8000010B591EA030F48BF81
:1033000083F000433FF532AC841A71EB030C07D213
:1033100012198CF0004C43EB0C03001B61EB0C0109
:10332000DFF8A4E14FEA1154A4EB135C1EEA430F4B
:1033300018BF9EEA445F00F0B08023EA6E03524259
:1033400021EA0451C3EB6E0338BF5B1EDCF1200E93
:1033500025D322FA0CFE10EB0E0043FA0CFE41EBD3
:103360000E01CCF1200E03FA0EFE10EB0E0051F10F
:103370000001CCF1200E29D412FA0EF201EB045117
:10338000BDE8104058BF7047401C1CBFB2F1004F51
:10339000704700280CBF491C20F00100704712EB59
:1033A000020E43EB030218BF4FF0010E4EEA420239
:1033B000ACF1200CDCF11E0E54D943FA0CFE10EBDC
:1033C0000E0051F1FF31CCF11E0ED5D50EF1010EDC
:1033D00012FA0EFE404141EB010101EB445C5FEA51
:1033E0005C5C10D910EBDE7001EB045138BFBEF10C
:1033F000004FBDE8104018BF704700280CBF491CA3
:1034000020F00100704730D24FEAD42C11F50011A2
:1034100024F400641BD0B1FA81F20B3AA41AA41E62
:10342000D2F12003914030FA03F31943904001EBAD
:10343000CC71002C01EB0451BDE81040A8BF7047CF
:1034400001F1C0414FF0000001F000417047B0FAB7
:1034500080F310FA03F100D110BDE41A173C4805BF
:10346000C90AE4E701EB045110BD491001EB045116
:10347000BDE810404FEA300002E04FF00001704715
:103480004A0008BF0042F8D0B2F5001F28BF7047BD
:1034900001F000414FF0000070479EEA445F07D002
:1034A00011EA5E0FBDE8104004BF00210020704704
:1034B000BDE8104070B5FFF789FE00BF40DFF63E63
:1034C00083F00041104670470000E0FF43004FEAE0
:1034D000D30C4FEA3C0C43401FBF40070CF1605136
:1034E00013F0FE4F70471CF0006F03D100200CF06A
:1034F000004170470CF0004343EA507010B540EAB9
:10350000CC0000F00EF800BF000000924FEA00016E
:10351000FFF7AABE4FF000414FF00000A1F50021D7
:1035200070470EF1020E2EF0030E5EF8044B24429B
:1035300004D44FEA4102B2F17F4F11D84FEA400361
:10354000B3F17F4F0CD80ED14FEAD07CB2F17F4F50
:103550000CEB4C0C0CF1020C08BF4CEBD17C04E0E2
:103560004FF0080C01E04FEAD17C0CEB4C0324FA3D
:1035700003F404F00704B4F1040C06D20EEB840C3F
:10358000BDE810404CF0010C6047DFE80CF0070884
:1035900002024FF00040A0F5800010BD0846420036
:1035A00018BFD2F1807288BF00F0004010BD4FF00C
:1035B0004070E1EE100A7047FF2141EAD050C0058B
:1035C00070470000004000401000000000800540EF
:1035D0001000000000500040110000000090054065
:1035E00011000000006000401200000000A0054033
:1035F00012000000007000401300000000B0054001
:1036000013000000004002401400000000C005400C
:1036100014000000005002402E00000000D00540C1
:103620002E000000006002402F00000000E0054076
:103630002F000000007002403000000000F0054044
:103640003000000000D003404600000000000640AB
:103650004600000000100640470000000020064021
:1036600048000000003006407F0000000040064097
:10367000800000000050064084000000006006400A
:103680008C00000000400040100000000080054059
:1036900010000000005000401100000000900540A4
:1036A00011000000006000401200000000A0054072
:1036B00012000000007000401300000000B0054040
:1036C00013000000004002401400000000C005404C
:1036D00014000000005002402E00000000D0054001
:1036E0002E000000006002402F00000000E00540B6
:1036F0002F000000007002403000000000F0054084
:103700003000000000D003404300000000000640ED
:103710004300000000100640440000000020064066
:103720004500000000300640580000000040064000
:1037300059000000005006405C0000000060064098
:1037400064000000007006406C000000008006402D
:103750006D000000009006407F0000000040004027
:10376000008005400050004000900540006000408F
:1037700000A005400070004000B00540004002403D
:1037800000C005400050024000D0054000600240EB
:1037900000E005400070024000F0054000D003400A
:1037A00000000640001006400010064000200640C1
:1037B0000020064000300640003006400040064031
:1037C00000400640005006400050064000600640A1
:1037D0000060064000700640007006400080064011
:1037E0000080064000900640009006400007000060
:1037F00000060000000500000004000000030000B7
:1038000000020000000100000000000000000000B5
:1038100018ED00E01CED00E020ED00E000E400E029
:1038200004E400E008E400E00CE400E010E400E060
:1038300014E400E018E400E01CE400E020E400E010
:1038400024E400E028E400E02CE400E030E400E0C0
:1038500034E400E038E400E03CE400E040E400E070
:1038600044E400E048E400E04CE400E050E400E020
:1038700054E400E058E400E05CE400E060E400E0D0
:1038800064E400E068E400E06CE400E070E400E080
:1038900074E400E078E400E07CE400E080E400E030
:1038A00084E400E088E400E000E100E004E100E0FE
:1038B00008E100E00CE100E010E100E080E100E060
:1038C00084E100E088E100E08CE100E090E100E0CC
:1038D00000E200E004E200E008E200E00CE200E0C8
:1038E00010E200E080E200E084E200E088E200E034
:1038F0008CE200E090E200E000688909001C4E0EB6
:1039000040420F0000201C0080841E000080250023
:10391000999E36000040380000093D0000803E00BE
:1039200000004B00404B4C0000204E00808D5B009F
:1039300000C05D000080700000127A0000007D0071
:1039400080969800001BB7000080BB00C0E8CE0046
:10395000647ADA000024F4000000FA0080A8120162
:10396000002D310100366E0140787D0140000000DD
:1039700000000000000100003E0008000000000000
:1039800000010000A0000000020000000001000093
:103990003454010000000000000100002B700600FC
:1039A00000000000000100002800000000000000EE
:1039B00000010000270001000000000000010000DD
:1039C0002000000000000000000100005000000086
:1039D00002000000000100001AAC0000000000001E
:1039E0000001000017940900000000000001000021
:1039F00016980500000000000001000014000000FF
:103A0000000000000001000013800800000000001A
:103A100000010000A00000000800000000010000FC
:103A2000100000000000000000010000280000005D
:103A3000020000000001000040000000040000003F
:103A40000001000060000000000000000001000014
:103A50005D000C00000000000001000050000000AC
:103A600000000000000100004E0002000000000005
:103A70000001000041AC0100000000000001000056
:103A80003C00000000000000000100003A80090036
:103A900000000000000100003000000000000000F5
:103AA00000010000280000000000000000010000EC
:103AB0002700010000000000000100002360060054
:103AC000000000000001000021600800000000006C
:103AD000000100001E0000000000000000010000C6
:103AE0001DC00400000000000001000050000000A4
:103AF00002000000000100001800000000000000AB
:103B0000000100001400000000000000000100009F
:103B10006000000004000000000100000024F40028
:103B200030003000005A6202910091000087930338
:103B3000D200D20000B4C4041301130100E1F50562
:103B400054015401000E2707950195010000034020
:103B50002300000000100340250000000020034067
:103B60002700000000300340330000000040034005
:103B700056000000005003406C000000006003404D
:103B80006E000000007003407000000000C00440A0
:103B90007200000000D004407400000000E0044007
:103BA0007600000000F004407800000000000340B0
:103BB0002300000000100340250000000020034007
:103BC00027000000003003403300000000400340A5
:103BD0004F000000005003405100000000000E4064
:103BE0007200000000100E40740000005F02040329
:103BF00004050103050E1500FC10FC11FC0304066E
:103C000095097620095EC33FFEFF9700210E5EC333
:103C10009BEC62FD7B94B3EB710222145EC393882C
:103C2000A088A088A088A088A0883CFE3F02232806
:103C30005EC33F8C4CA04CA088608CD401CD015950
:103C40008C604CA04CA04CD801CD01558C608C6090
:103C50008C604C3C4E0024265EC39BB0A89D842AF9
:103C6000119128114111C952625209491141114162
:103C700011211109A90339536179440025275EC335
:103C80003F04914C519088221109290B310A615946
:103C9000E16089C188320911211145226A648A8450
:103CA000E6310726225EC33FCC68A18C9C8C9C8C9D
:103CB000A08464A968A5881A25324244528AA82C97
:103CC000A668E23107270B5EC39BB0DEE3FF33003B
:103CD00028165EC3A7ECA8ACECACB0ACB0BE169690
:103CE0001696961E960129155EC34FF0F4B0B46285
:103CF000D5C27A2B2C2B3BBA5612002A1A5EC33F30
:103D00005E0847478A840C1D08CE46844A08CA8844
:103D100049C9E331002B105EC33F26C21A1E0C1D99
:103D20000C0AEB1E3F2C0E5EC33FFE9FC9D20E0B4A
:103D3000A70E042D0E5EC33F7E792075208FFF0EE7
:103D4000002E0C5EC33FFE9FCDAEC709002F175E4D
:103D5000C36BB05A61596159615961E160E160B565
:103D6000C2F2D80130275EC33F0CA5DD8C98549475
:103D7000D49010915084904C8890488C90848C10F2
:103D800091D09422B119394B7A9C00310F5EC33F18
:103D90009428A584B0FEDFE3040032145EC33F0C18
:103DA000E599D0B06EF5B1EC81D4813CE6003317D3
:103DB0005EC33F4CE1F1B05A49526AC59A05891D6C
:103DC00004D6E30200341E5EC33F98B0EC28698439
:103DD0006488A088608C9C8C9890D8C1D0C1A8B011
:103DE000F6B800351A5EC33FC841D84198B0269155
:103DF0007742D2C23A92123B88ABC7050036205EAA
:103E0000C33F14E199B0ACB04CA044198D94D49048
:103E10009890989098D09422B9437A5C0037175EB6
:103E2000C33FC481D481ACB070B05A61B5C26A8559
:103E3000D5E3080038245EC33F10A59D9098909864
:103E400090D88CDC84E4A8889C9094989098909862
:103E5000D090D841203D2E0039205EC33F10E19D17
:103E600090946642624262524253077214C2C2C1C7
:103E70006241530781F438013A0E5EC33F9ECFAED4
:103E8000C7B3D9F538013B0F5EC33F9ECFAEC757CE
:103E9000B3C38A13023C135EC33F4251422E67A74D
:103EA00017134F4BC7E32D003D125EC33F6E0F86C5
:103EB0000EE6B138183A98C75F023E115EC33F6AFA
:103EC000611ECF4EAEA41C95C757003F155EC3536D
:103ED000DD4198905898B05A1DAB473ABB1E270059
:103EE00040275EC33F10E141D49094988C8C8DC8DC
:103EF0008DC48C0A211909211989911991239910CE
:103F00002169E183C07A1C41225EC33F5474B0F042
:103F10006C44A8846488644CA08C5C90DCD9819447
:103F200022391939193979AC0142265EC3FF41D8CB
:103F30008194D4909890989094D481D4419894325C
:103F400021312131213121A9A103A983785C0043CA
:103F50001A5EC33F10E141D4D09098CCACB01E0F94
:103F60000B4F491D04D2E3020044235EC33FC4DD6E
:103F70004198D09466426242624262426242624228
:103F800062426242528AA60EC2EC710245195EC3B9
:103F90003FC4C1D0C190B08E0FA40EA484757C30F4
:103FA00074308F350046155EC33FC481D48194B010
:103FB000C607610761C2FA3DCE00471E5EC33F10CF
:103FC000E141D4D0905890B08E6A846AE464E4846D
:103FD000C484A6A40EE4EA7148285EC33F84989086
:103FE0009890989098909890989098D0C1D0C190BF
:103FF000989098909890989098909890983CD60027
:1040000049125EC33FC441D841A4B0FE970761077F
:10401000F1384A115EC33FD0DDA9B0FEB320B9C369
:104020007A9C004B235EC3BF98909422311939913A
:1040300039114109C94A4311411939213121312925
:10404000654262F358034C0F5EC33F84B0FE1F1FEE
:104050000C1DCC630D4D2B5EC3BF9C8C9CCCD4CC73
:10406000D40C1B89980819096D44224264444664A3
:104070006462D4C9C8C9C8C9C8C9C8C9C8C9630D98
:104080004E2B5EC3BF98D094D094109110910A1912
:104090002109192111453221423212424211424274
:1040A0004452435243624262F298034F235EC33F3D
:1040B0004CE1D9909422391939193919391939191A
:1040C00039193919392129A921B14B7A5C00501DC0
:1040D0005EC33FC441D88194D490989098909890B2
:1040E000D4D081D44198B0BEC7190051265EC33FD9
:1040F0004CE199944672327232723272327232727A
:104100003272327242524352621383B5C2D2C43207
:104110000052255EC33FC441D88194D490989098B2
:10412000909890D4D081D441988C9C9098909894F9
:10413000CE84C4E4B106531A5EC33F4CE14194C639
:10414000C28B8BA7150BC50949491DC8D5E30200D1
:10415000540F5EC3FF01CD019DB0FEDFE3060055A5
:10416000265EC3BF98909890989098909890989059
:10417000989098909890989098909890989490D8BB
:1041800041203D4E0056215EC3BF9C8C9C90989070
:104190005894322131A1381941114191480951D225
:1041A000D961E178DC00572F5EC37FA4884C508C26
:1041B0009A1835316A82424684422214494448445E
:1041C00049444844914444CD4CCD8C0989098945E2
:1041D000C545C5E30058215EC33F84589432A138D9
:1041E0001941094909D1D9B5941292227232724209
:1041F00052AAE2E4B10659195EC3BF9C909890940C
:104200009890988CA088A04828E9B07E8F13005A17
:104210001B5EC3FFC1D0C1ACB0AC70B0ACB0AC7071
:10422000B0ACB0EC01CD013DD6005B125EC3D34112
:10423000D84198B0FE7F7C1076100F015C185EC3E9
:104240008BB0B4B074B4B0B4B0B4B0B4B0B4B0B4B3
:10425000B0743C065D125EC3CB41D841B0FEFFECAA
:1042600020EC201E06005E145EC33F54B4ECA8840C
:10427000A448A08C5C543CFECF005F0D5EC33FFEA3
:104280007F7E4073408F0060115EC33F92E868619B
:104290006961E96879FCA700611A5EC33FCEEB0E45
:1042A0008287D55D1D0889098909494D1D8891C8F6
:1042B000630E62215EC38BB05ED01D480D49890933
:1042C000890989098909890989090D491D8485D0C8
:1042D000E3020063145EC33FEE0B0FA21409EB78F8
:1042E000582AEE20AE1E0764215EC3A7B0EE28A4B4
:1042F0000EA48486C484C484C484C484C484C4A432
:1043000084A60EE446E43107651A5EC33FCE0BCFA8
:10431000A484C4840E860E8684554BC51DC4D5E383
:10432000020066145EC31FE1D95098B0D283B083F7
:104330004061FD3D8E00671F5EC33FAE4B840E663D
:10434000A4F44C66CE4E58D8F2202A4E464E464E25
:10435000E660CC0A0068125EC38BB09ECC49940D17
:1043600049E9FFBFC71C0069105EC39BECB03CBAB3
:10437000CA62FDE5DD3D0E6A125EC39FF0703C32FD
:104380004363FDEF82C40EEB006B1D5EC38BB05E1A
:104390002912939113119490AC9C1094919319133A
:1043A0009AD24C1E6B006C0F5EC34B65B1FE5F1E54
:1043B000481DC8630E6D235EC33F6E2546660E4AD8
:1043C0006446D428915122A34446898C121925327F
:1043D0004A6494C8A8C718006E115EC33F8E45E6B4
:1043E00024CA86A4F4FFDF630E6F1C5EC33FCE0BAE
:1043F000CFA484C484E464E464E464E464C4A49462
:104400001DD6E3020070215EC33F8E45E60EA486F2
:10441000A4C484C484C484C484C484C48486A40E10
:10442000A424E884350571205EC33FCE29A40EA4E0
:104430008486C484C484C484C484C484C4A484C658
:104440000EE24684750372125EC33FAE45C824ACCB
:1044500088A26685F57B5C0173175EC33FCE0BCFE8
:10446000A4144F13130F4B85491DC4D9E3020074E4
:10447000135EC33F1261A507610781C2FA51A025EF
:104480003D0E751F5EC33F8EC584C484C484C4843E
:10449000C484C484C484C484C484561D8891C863FD
:1044A0000D761D5EC33F6EE584C4A2C4528909C562
:1044B000C9088A088A444A88CE0EC7E306007729CD
:1044C0005EC33F6E0545646462D404C5C804C5C8B4
:1044D00004499004494428920889109208191B192C
:1044E00013121392C71C00781C5EC33F8EA5C464D0
:1044F000E46404254467974A484A08CA8849A99A47
:10450000C71A00791E5EC33F8EC584C484A4C484C8
:10451000C48402450445044542D90A0B070B565290
:10452000027A155EC33F8E0FA40E64B59DD576F456
:1045300060E8601E73007B135EC33F1865A1B08EF8
:104540004349A715EBEB521A007C0A5EC39BB0FEF1
:10455000FFCF007D145EC33F44A5B5B05ED38ECAC5
:104560000AEBED9C611D007E105EC33FCE638B6243
:10457000648C82E8F13F0300000004FFFF000000AC
:104580000D26000011260000432100001815AF1968
:10459000FF1815AE19FF1815A115C819FF1815A099
:1045A00015C019FF1815A115C019FF1815A015C8B9
:1045B00019FF1815AE15D5168015A8163F15D31678
:1045C000001540158D16141520160015A115C815D7
:1045D000DA1612158116CF15D916F115DB1640150E
:1045E0002E15A415A619FF1815AE15D5168015A8F9
:1045F000163F15D316001540158D161415201600FC
:1046000015A115C815DA1612158116EF15D916A1C0
:1046100015DB1600152E15A415A619FF1815AE15D5
:10462000D5168015A8163F15D316001540158D1602
:10463000141520160015A115C815DA1602158116D5
:10464000CF15D916F115DB1640152E15A415A61990
:10465000FF1815AE15A415D5165015A8163F15D37D
:104660001600154015AD168B15D9162215DB16351B
:104670001532158116FF15A615DA161219FF181531
:10468000AE15D5168015A8163F15D3160015401582
:104690008D16141520160015A115C015DA16121561
:1046A0008116CF15D916F115DB1640152E15A41558
:1046B000A619FF000001140A6464323200127A0065
:1046C0000004289610080000800040000001140A31
:1046D0006464323200093D0000042896100802028A
:1046E0008000400004470000000000206C0600002D
:1046F000A8020000184700006C0600204C080000CB
:10470000E4020000011603FF010101FF01FF01FFA8
:0847100001FF01FF016200003E
:040000050000026D88
:00000001FF
