:020000040000FA
:10000000280700201D03000025030000270300002F
:10001000290300002B0300002D0300000000000056
:100020000000000000000000000000002F0300009E
:10003000310300000000000033030000350300001E
:1000400037030000390300003B0300003D030000BC
:100050003F0300004103000043030000450300008C
:1000600047030000490300004B0300004D0300005C
:100070004F0300005103000053030000550300002C
:1000800057030000590300005B0300005D030000FC
:100090005F030000610300006303000065030000CC
:1000A00067030000690300006B0300006D0300009C
:1000B0006F0300007103000073030000750300006C
:1000C00077030000790300007B0300007D0300003C
:1000D0007F0300008103000083030000850300000C
:1000E0008703000089030000000000008B0300006C
:1000F0008D0300008F0300009103000093030000B4
:100100009503000097030000990300009B03000083
:1001100000000000000000009D0300009F0300009D
:10012000A1030000A3030000A5030000A703000033
:10013000A9030000AB030000AD030000AF03000003
:1001400000000000000000000000000000000000AF
:10015000B1030000B3030000B5030000B7030000C3
:10016000000000000000000000000000000000008F
:10017000000000000000000000000000000000007F
:10018000000000000000000000000000000000006F
:10019000000000000000000000000000000000005F
:1001A000000000000000000000000000000000004F
:1001B000B9030000BB030000BD030000BF03000043
:1001C000C1030000C3030000C5030000C703000013
:1001D000C9030000CB030000CD030000CF030000E3
:1001E000D1030000D3030000D5030000000000008D
:1001F00000000000D7030000D9030000DB0300006B
:10020000DD030000DF03000000000000000000002C
:10021000E1030000E3030000E5030000E703000042
:10022000E9030000EB030000ED030000EF03000012
:10023000F1030000F3030000F5030000F7030000E2
:10024000F9030000FB030000FD030000FF030000B2
:10025000010400000304000005040000070400007E
:10026000090400000B0400000D04000000F002F877
:1002700000F041F80AA090E8000C82448344AAF1FF
:100280000107DA4501D100F036F8AFF2090EBAE8FD
:100290000F0013F0010F18BFFB1A43F001031847BA
:1002A0003C2800005C280000103A24BF78C878C1C0
:1002B000FAD8520724BF30C830C144BF04680C606C
:1002C000704700000023002400250026103A28BFB4
:1002D00078C1FBD8520728BF30C148BF0B607047B8
:1002E000642900F0E180002070471FB501F0F2FDA5
:1002F0001FBD10B510BD00F05CFA1146FFF7F5FF09
:1003000000F0E6FE00F07AFA03B4FFF7F2FF03BC58
:1003100000F082FA0138FDD1704700003F48804765
:100320003F480047FEE7FEE7FEE7FEE7FEE7FEE7A1
:10033000FEE7FEE7FEE7FEE7FEE7FEE7FEE7FEE795
:10034000FEE7FEE7FEE7FEE7FEE7FEE7FEE7FEE785
:10035000FEE7FEE7FEE7FEE7FEE7FEE7FEE7FEE775
:10036000FEE7FEE7FEE7FEE7FEE7FEE7FEE7FEE765
:10037000FEE7FEE7FEE7FEE7FEE7FEE7FEE7FEE755
:10038000FEE7FEE7FEE7FEE7FEE7FEE7FEE7FEE745
:10039000FEE7FEE7FEE7FEE7FEE7FEE7FEE7FEE735
:1003A000FEE7FEE7FEE7FEE7FEE7FEE7FEE7FEE725
:1003B000FEE7FEE7FEE7FEE7FEE7FEE7FEE7FEE715
:1003C000FEE7FEE7FEE7FEE7FEE7FEE7FEE7FEE705
:1003D000FEE7FEE7FEE7FEE7FEE7FEE7FEE7FEE7F5
:1003E000FEE7FEE7FEE7FEE7FEE7FEE7FEE7FEE7E5
:1003F000FEE7FEE7FEE7FEE7FEE7FEE7FEE7FEE7D5
:10040000FEE7FEE7FEE7FEE7FEE7FEE7FEE70000A9
:1004100004480549034A054B704700005D0F000082
:100420006D02000028050020280700202805002074
:100430000FB41CB5074B06AA7B446946009005988B
:1004400000F09FF90020694600F0AEF91CBC5DF891
:1004500014FB00006D03000070B504468569006858
:10046000C10601D5302600E02026C00707D070BDA8
:10047000D4E9012130469047206A401C20626D1E5D
:10048000F6D570BD70B5044685690078C00707D100
:1004900070BDD4E9012120209047206A401C2062D1
:1004A0006D1EF6D570BD00002DE9F0410646002412
:1004B00010687529314616A510D0AFF300800028CA
:1004C00002DA404213A507E031688A0701D512A578
:1004D00002E0490704D511A5012401E0AFF3008033
:1004E00000210A2206F1240709E0B0FBF2FCB0FB70
:1004F000F2F302FB1C00303078541846491C0028E7
:10050000F3D123462A463046BDE8F04100F0DBB87F
:10051000000000002D0000002B0000002000000063
:100520002DE9F0474FF0000A89460446C0F820A0A4
:100530002046E1688847002876D0252806D0D4E9EF
:1005400001219047206A401C2062F1E7E1682046C3
:1005500000258847C4F81CA006460027C4F818A048
:100560002A2E09D0304600F03BFD38B304EB870853
:10057000303EC8F8186019E059F8041B204604EB17
:1005800087029161E1688847012F064618D1E0692A
:10059000002820DA25F020051DE0D8F8180000EB2F
:1005A000800006EB40003038C8F818002046E168AB
:1005B0008847064600F014FD0028EED1012F0AD02E
:1005C0002E2E08D12046E16888477F1C0646022F60
:1005D00045F02005C4DBA069002803DA404245F05D
:1005E0000105A061E80701D025F01005B6B1A6F11C
:1005F0004100192802D8203645F400654A463146A4
:10060000204625604D46FFF76BFE58B1012806D005
:10061000ED1D25F0070000F1080989E704E005F168
:10062000040985E730468AE7206ABDE8F0874FF085
:1006300000020429C0F0128010F0030C00F01B80AF
:10064000CCF1040CBCF1020F18BF00F8012BA8BFBD
:1006500020F8022BA1EB0C0100F00DB85FEAC17C81
:1006600024BF00F8012B00F8012B48BF00F8012B34
:1006700070474FF0000200B5134694469646203965
:1006800022BFA0E80C50A0E80C50B1F12001BFF44B
:10069000F7AF090728BFA0E80C5048BF0CC05DF8B1
:1006A00004EB890028BF40F8042B08BF704748BFFF
:1006B00020F8022B11F0804F18BF00F8012B704773
:1006C0007047704770472DE9F0470D4699469246AE
:1006D000044600F124080168880604D5E06921F089
:1006E0001001216000E00120A84201DD471B00E06D
:1006F0000027A1697A1902EB0900081AA061207885
:10070000C00602D42046FFF7A7FE002608E0D4E981
:1007100001211AF806009047206A401C761C2062CE
:100720004E45F4DB2078C0060AD52046FFF794FE3C
:1007300006E0D4E9012130209047206A401C206265
:10074000381EA7F10107F4DC07E0D4E9012118F80D
:1007500005009047206A401C2062281EA5F1010573
:10076000F3DC2046FFF78EFE2078000602D502203B
:10077000BDE8F0870120FBE701694A1C02610878A7
:10078000704700B58FB0CDE90131002105910549D1
:100790007944CDE9031011466846FFF7C1FE0FB05A
:1007A00000BD0000E5FFFFFF0A6802F8010B0A60C8
:1007B0007047754600F02CF8AE4605006946534672
:1007C00020F00700854618B020B5FFF721FEBDE8F0
:1007D00020404FF000064FF000074FF000084FF0A8
:1007E000000B21F00701AC46ACE8C009ACE8C00939
:1007F000ACE8C009ACE8C0098D46704710B50446A6
:10080000AFF300802046BDE81040FFF77DBD00003B
:1008100000487047C804002001491820ABBEFEE71D
:100820002600020070470022490801E04908521CD6
:100830000029FBD10263704701228A40C2607047E1
:100840002AB1C0684FF001128A40104070474068DA
:1008500001228A4042F480321040C203F6D54FF4A0
:10086000803240F470208A40904370470A0C01F0B7
:100870000F031204012199400A43816A0A438262EC
:100880007047F0B5466989000F258D4002F00F04CE
:10089000AE4304FA01F73E434661066A03F00303E0
:1008A000AE438B401E430662A11F03290AD8C369C9
:1008B000E100302430398C4002F03002A3438A40FA
:1008C0001343C361F0BD00EB41110020403102E051
:1008D0008B68401C08C2CB68DB0501D40828F7D31D
:1008E0007047026801238B401A430260704730B59D
:1008F00000EB4110910050F8404F0F228A4003F066
:100900000F0594438D402C4304608469C3F3032591
:1009100094438D402C4384614468C3F3031594438E
:100920008D402C434460C469C3F3035594438D4008
:100930002C43C46113F4702F4FF001050AD04469B1
:100940009443C3F302428A402243426102698D40CC
:100950002A4302E002698D40AA43026130BD0000D3
:1009600070B50C460546FFF781FF00222146284658
:10097000FFF766FF0028F8D021462846FFF75CFF06
:10098000054A21462846FFF79EFF03480249091FF2
:100990000068086070BD000008000020D307D0F890
:1009A000003401D00B4300E08B43C0F800349207C1
:1009B000D0F8202401D50A4300E08A43C0F820245F
:1009C00070472DE9F04300244FF001084FF0030970
:1009D000C2F3411C08FA04F50D420ED0D0F8C47FD2
:1009E000650009FA05F6B743C0F8C47FD0F8C46FB4
:1009F0000CFA05F52E43C0F8C46F641CE4B2082C51
:100A0000E8D3D407D0F8004501D00C4300E08C4374
:100A1000C0F800459407D0F8044501D50C4300E028
:100A20008C43C0F804455407D0F8084501D50C4361
:100A300000E08C43C0F808451407D0F8184501D5EC
:100A40000C4300E08C43C0F81845D206D0F83C2592
:100A500001D50A4300E08A43C0F83C25DA07D0F804
:100A60000C2501D00A4300E08A43C0F80C259A0700
:100A7000D0F8102501D50A4300E08A43C0F81025BC
:100A80005A07D0F8142501D50A4300E08A43C0F87C
:100A900014251A07D0F81C2501D50A4300E08A4323
:100AA000C0F81C259A05D0F8442501D50A4300E07A
:100AB0008A43C0F84425D0F8402513F4407F01D084
:100AC0000A4300E08A43C0F84025D0F8282523B126
:100AD0008A43C0F82825BDE8F0830A43F9E70000FF
:100AE0000E4A10B5D36EC0F3074101228A4013426B
:100AF0000B4A03D002EBC101496801E052F8311002
:100B0000020AD1F82C350F24944000F00F00A343C3
:100B100090400343C1F82C3510BD000000E00F40A9
:100B20007820000030B50C4605460022FFF736FF5E
:100B300021462846BDE8304000230122FFF741BF8F
:100B400030B50C4605460222FFF728FF214628460D
:100B5000BDE8304009230122FFF733BF30B50C4612
:100B600005460222FFF71AFF21462846BDE830401D
:100B700008230122FFF725BF4068C00700D00120ED
:100B8000704741607047816070470000036A43F01E
:100B9000100303620AB10E4A00E00E4A02EB820320
:100BA00001EB830302EB820292005B1EB3FBF2F2C5
:100BB000521EC260D0F8C02FD20708D0064A114496
:100BC000521CB1FBF2F1491E41F08001C160704737
:100BD000801A0600A08601007F47370142EA4101E2
:100BE000016070472DE9F0410D461D4F90460146CA
:100BF00000223846FFF7F2FF29783846FFF7C3FF97
:100C000003213846FFF7BDFF0124A8F101060EE0DD
:100C10003846FFF7B1FF0028FAD1295D3846FFF7C3
:100C2000B2FF01213846FFF7ACFF641CE4B2B442C6
:100C3000EED33846FFF7A0FF0028FAD105EB0800F5
:100C400010F8011C3846FFF79EFF05213846FFF7D4
:100C500098FF3846FFF790FF0028FAD1BDE8F081F1
:100C60000000024010B5124C204600F045F9204625
:100C700000F056F90F4800F03FF90F48FFF730FF3A
:100C80000E48FFF72DFF0E4C04212046FFF766FFAC
:100C900008212046FFF754FF00F01AF80146002211
:100CA0000848FFF773FF09490748086010BD0000B6
:100CB000002000F0010800F003080100030C01000F
:100CC000005000400000024040D3C404040F024022
:100CD000F0B5454E326E316F002902DA01F0700036
:100CE00001E002F03000202812D003DC40B11028CF
:100CF00004D10BE030280DD070280ED00020F0BDBC
:100D00007C203A4B00EA1210185808E0384806E0F8
:100D1000384804E047F2305001E04FF400404FF013
:100D2000FF33002901DA0C0505D501F0004402F477
:100D300000652C4336D1D6F86041D6F8645105F0F1
:100D40001F07C5F304256D1C7F1C17FB05F56D00FF
:100D5000B0FBF5F0C4F309054543C4F389246043AF
:100D6000346905EB902042F4800204F47044B4F539
:100D7000804F12D006DCB4F5005F0AD0B4F5405FB6
:100D800010D108E0B4F5E04F09D0B4F5104F09D107
:100D900007E0194B06E0194B04E0194B02E0194B30
:100DA00000E0194B540217D5002919DA4C0007D579
:100DB0000C050BD501F0004402F40062144305D089
:100DC000C1F3C551491CB0FBF1F005E04200C1F38D
:100DD0008650401CB2FBF0F0834290D21846F0BD22
:100DE000C2F3C351EEE7000000E00F401021000005
:100DF0000024F40000093D0000B4C40480F0FA02AD
:100E0000005A620240787D01002D310130B4364C29
:100E1000216E236F21F4800141F4006243F40065E8
:100E20002266256722EA0001C9070ED060F00101A1
:100E30000A40A115A1652266C90201E0491E50D0F1
:100E4000236DDB05FAD500294BD022F4FE6200F4B5
:100E5000FE611143254A00F008031540234A21662C
:100E6000A13202402A4342EAC302226721F400531E
:100E700000F400510B4322F4005211434FF04002A2
:100E8000A26502D52167236601E023662167184A1F
:100E90001340D24302401A4321F0FC5300F0FC51AE
:100EA0001943430007D5134B21F48001034042F45A
:100EB00080020B4301E021F0804300050BD44FF486
:100EC0000041D4F86801C00701D1491EF9D122F4CC
:100ED000006223F400632266236730BC1020FFF712
:100EE00019BA30BC7047000000E00F408FFFFF7F51
:100EF000FEFF3FF800004040C0F307230749C0B29F
:100F0000194401F07043C1F3130143EA411141EA6E
:100F1000800040F0007001220260704700E60F4040
:100F200008B5C0F307230C49C0B2194401F070435F
:100F3000C1F3130143EA411141EA800040F000711E
:100F400001220A60002200920098401C00901028A4
:100F5000FAD30A6008BD000000E50F40164801689A
:100F600041F4700101601649144808671548086685
:100F7000154808661548086700204FF47A72401C2F
:100F80009042FCD312480866124808670020401CB3
:100F90009042FCD310480866086D4006FCD50F4807
:100FA00008664FF0C0700867002042F21071401CC4
:100FB0008842FCD37047000088ED00E010288007CD
:100FC00000E00F40D13A8E07422D9E01002880019B
:100FD000420D9E0100088001420DDE014205DE0146
:100FE00030380A2801D201207047002070470000E5
:100FF0002DE9F0470D462D490646DDE908A9681A96
:10100000984617468D4219D009DCB5F1402F0DD016
:10101000274828180CD0B0F5805F17D10BE0B0F549
:10102000E83F0ED0B0F5F03F10D10DE0214C0DE0BF
:10103000204C641C0AE01F4CA41C07E01D4CE41C5F
:1010400004E01C4C241D01E01A4C641D1A48864221
:1010500002D11A48FFF750FF1948864203D11748BA
:10106000401CFFF749FF2046FFF746FFF9B228462C
:10107000FFF758FD00231A4651463046FFF701FCA2
:1010800049463046FFF7CFFB48F060030022514647
:101090003046FFF72CFC51463046FFF722FC514604
:1010A0003046BDE8F047FFF7C7BB000000700040C6
:1010B00000B0FFBF000800F000800340003800F0DF
:1010C0000090034040F66C414843401EFDD27047FB
:1010D000A8B01A48FFF79AFE02A800F03DF8184998
:1010E00002A800F014F903200821CDE90001164EF2
:1010F0000346012213493046FFF77AFF134C40F6AE
:10110000B83503213046FFF72BFC2080FFF7E0FDC8
:1011100064214843B0FBF5F0FFF7FCF822880CA1EE
:101120000C48FFF785F90B4B1E22142102A800F092
:10113000C5F802A800F0E2F8E3E70000400540022D
:101140005C230000004002400080034000000020BB
:10115000253464001400002010B50446084B094AE9
:10116000094900F01DF9204600F060FC00212046EE
:1011700000F06CFC2046BDE8104000F007B800000D
:10118000491E0000011B000078290000016890F84A
:101190003820097C12FB01F1C900406BFFF747BA08
:1011A0002DE9F041044690F870001F4615460E46A2
:1011B00030B1012809D002280CD0032815D10FE046
:1011C000E16D20468847284408E0E16D20468847C5
:1011D000301A09E0E16D20468847281A85B204E0FC
:1011E000E16D20468847304486B22846A4F8646002
:1011F000A4F8660039460025204600F0C0FA010038
:1012000003D0204600F0EDF985B22846BDE8F08114
:101210003FB581B0044690F88C000899002839D079
:10122000BDF81000002835D0012811D9022902D0BC
:10123000032907D00CE0BDF80820101A401CADF8B7
:10124000080005E0BDF80C20101A401CADF80C0099
:1012500011F0010520D0B4F84810BDF80800814213
:1012600018D8B4F84A10814214D9B4F84E30B4F802
:101270004C2004A903A800F02BF900280AD00095FF
:10128000206BBDF81030BDF80C208568BDF8081043
:101290002046A84705B030BDB4F84C10BDF80C008E
:1012A0008142F7D8B4F84E108142F3D9B4F84A30ED
:1012B000B4F8482004A902A8DDE7000030B4024CCD
:1012C000446030BC00F031B9B51A000070B50D466D
:1012D0001E460446B0F84E10B0F84C00049B00F0D7
:1012E000ABFA002809D0B4F84A10B4F848003346E5
:1012F0002A46BDE8704000F09FBA70BD10B50446A4
:1013000000F029FB2046BDE8104000F097BB10B567
:101310000446806D884209D004F17400A16500F094
:10132000E5FA2046BDE8104000F056B810BD0000B8
:101330000149C16570470000971500000021A0F821
:101340005010A0F854104FF6FF71A0F85210A0F8FA
:101350005610016B4968084770B50446002504988B
:10136000A565E362616384F8382084F8395084F815
:101370006D5084F8915084F88D50012184F89210BA
:1013800084F8931020630168204688472046FFF7C1
:10139000D5FF2046FFF7CCFF84F8705070BD0000E9
:1013A0007CB50C46009313460546084A084900F0F0
:1013B00055FB01A800F094FA0146064B00949DF8F5
:1013C00004202846FFF7C8FF7CBD0000191C000060
:1013D000411D00005118000010B5816D00291AD080
:1013E00090F9813080F88E3090F9822080F88F203B
:1013F00090F88D1000290ED001290DD090F97E4073
:1014000090F980100C449C4201DD80F88E408A42A5
:1014100001DD80F88F1010BD90F983108B4201DA46
:1014200080F88E1090F98410F1E72BB1012B05D0D4
:10143000022B06D0104402E0084400E0801A80B27B
:101440007047401AFBE72BB1012B05D0022B06D0C9
:10145000401A02E0104400E0084480B27047801A4D
:10146000FBE738B50446B0F856000090B4F85230A7
:10147000B4F85420B4F850102046FFF727FF18B3F3
:10148000012084F88C00B4F84810B4F85000814270
:1014900001D2A4F84800B4F84A10B4F852008142CE
:1014A00001D9A4F84A00B4F84C10B4F854008142B1
:1014B00001D2A4F84C00B4F84E10B4F856008142A2
:1014C00001D9A4F84E0038BD002084F88C0038BD46
:1014D00030B504880D882544ADB2AC4205D99C4294
:1014E00002D25D1EADB200E014469C4201D295428C
:1014F00001D8002030BD944200D214469D4200D94C
:101500001D460480281B0880012030BD38B5C58FDA
:10151000049C0094521BC46A92B2A04738BD38B5EF
:10152000049C0094FFF7F2FF38BD2DE9F0471E46FA
:1015300014460D46804600F0C9FC00274FF6FF799F
:10154000D8F80420317840469047034648451FD0DC
:10155000761CA3F57F40FE38F2D02246294640464D
:10156000FFF71EFE98F8701031B1012906D002294C
:1015700006D0032909D106E0291802E0211803E06A
:10158000291A8DB201E0211A8CB2384487B2D7E70C
:101590003846BDE8F0870020704710B50C4600F0D3
:1015A00006F80122641EA240801A40B210BD30B578
:1015B0000568047B2B78E3406218D2B2082A09D36D
:1015C0006D1C05602D78C4F10804A5401D43083A40
:1015D000EBB2D2B201248C40641E1C400273204640
:1015E00030BD2DE9F843054600F1600400F00AF92A
:1015F00015F96B6F2046E97BFFF7CFFF8146297C09
:101600002046FFF7CAFF0746697C20466B3DFFF77F
:10161000C4FF804694F90A00002856DDF0194042C4
:1016200042B2237C1746A0884946FFF7FEFEA08001
:10163000237C3A46E0884946FFF705FFE080A18811
:10164000277C02460B4637B1012F0AD0022F3FD02C
:10165000032F0FD145E094F90A7030443B449BB20C
:1016600007E0891B491C94F90A705B1C89B29BB284
:10167000384480B200902846FFF728FE28B30020A7
:101680002072607295F876102046FFF790FF814631
:1016900095F877102046FFF78AFF07460022494653
:1016A000284600F027F801223946284600F022F8A3
:1016B00001212046FFF77BFF0028EFD194F90900B4
:1016C000B042DFDBA07B85F892004046BDE8F8839E
:1016D00094F90A705B1CC91B491C89B29BB2921B0E
:1016E00004E094F90A7033449BB2D21B521C92B2AC
:1016F000401CBEE72DE9F74F00F1600490F86880C8
:10170000677A84B00D468146A07AA0EB0800C6B285
:10171000B246B54200D2AA46A088E1880291237C55
:101720007AB24FFA88F18B460092FFF77EFE019065
:10173000237C5946009A0298FFF785FE02460698D8
:1017400008B1A17B02E0607B48B9E17B89F8921087
:10175000207C0090534648460199FFF759FDB54259
:1017600006D3A81B7F1CC5B24FF00008FFB2CBE721
:1017700008EB05002072677207B0BDE8F08F70B506
:101780000D460146806D1730FF2D10D8612D02D314
:10179000B1F8881003E0412D02D3B1F88610084457
:1017A000417819B30278AA42F9D1801C70BDB1F812
:1017B0008A100C1826460021304600F019F804441F
:1017C0000221304600F014F8361DA842F3D34FF63C
:1017D000FF72207802EA00216078084306D0A84210
:1017E00001D1E01C70BDA0780444F2E7002070BD78
:1017F00008444FF6FF720178407802EA012108445C
:1018000080B2704730B5054600F1600401660020E3
:10181000207315F8781F2046FFF7C9FEA07269787B
:101820002046FFF7C4FEE072A87EA07310B100202E
:10183000E07330BD0120FBE78A4205D2834201D824
:101840009A4203D9012070478342F9D8002070479B
:10185000F0B502F007060124B440002590F892E0AC
:10186000E7B2DDF814C02C46BEF1010F01D83D46A9
:1018700000D03C46076822F00702BCF1000F3F7C15
:1018800007FB02F7426BBFB23A44114409D1087812
:101890005B1E284360401B0401F8010B1B0CF6D1B2
:1018A000F0BD0A78761C2A436240A3F101030A7056
:1018B00016F007069BB206D06A06150E6206140ED5
:1018C000002BEED1F0BD428F114490F89220012AF6
:1018D00002D84FF00105F3D04FF00104F0E700000B
:1018E0000821017000487047C600002070B504460A
:1018F00008782070487860708878A070C878E070A8
:10190000087920714879607188790D46A071E8796D
:10191000E071287A2072687A6072A87AA072E87AF8
:10192000E072287B2073687B6073A87BA073E87BE0
:10193000E073287C207411212846FFF759FF60824C
:1019400013212846FFF754FFA08215212846FFF7F0
:101950004FFFE08270BD2DE9F843074690F83890BC
:1019600090F83950006800244FF6FF78467C3968BB
:1019700038462A460B7C796B04FB03FC1FFA8CFC6F
:1019800008EACC0C61440091002100F040F8641C8E
:101990006D1CE4B2EDB24C4501D2B542E7D3BDE8CF
:1019A000F883F0B590F838204FF6FF76016806EA24
:1019B000C20383870B7C06EAC303438790F8393060
:1019C00006EAC304C4874D7C9F18AF4201D9EA1AC6
:1019D00092B206EAC20220F8404F224442808A8A2C
:1019E0008280C98AC180F0BDFFF7DBBF0021A0F86B
:1019F0004810B0F84410A0F84A10B0F84010A0F811
:101A00004C10B0F84210A0F84E10FFF72ABD1CB5DC
:101A10008DF805108DF80620049C8DF80430009494
:101A2000012284686B460F21A0471CBD30B4846836
:101A30000023A44630BC1A460A21604730B48468AB
:101A40000023A44630BC1A461021604730B4846895
:101A50000023A4460A4630BC0B2160472DE9F04123
:101A600016460D460446069F00F00AF86761A56019
:101A7000C4E903632046BDE8F04100F013B800005C
:101A8000002140F8081B064A026042608260C26082
:101A9000C17681770161FF21017780F820107047BE
:101AA000451E000030B484680023A44630BC1A46AA
:101AB00009216047080001D00A2801D14FF6FF70C4
:101AC000704730B404690023A44630BC1A4619217B
:101AD000604713B501AA012100F001F81CBD30B424
:101AE00004691346A4460A4630BC1721604730B447
:101AF00004690023A44630BC1A4618216047000040
:101B000070B5154C18290ED004DC142908D01729FB
:101B100004D10BE0192916D020291BD0002070BD5C
:101B2000FFF7A0F816E00020207013E00B4907E053
:101B3000207813F8015B0D54401C521E2070D2B265
:101B4000002AF5D106E090F82400227840080349E5
:101B5000FFF748F8012070BD020000204600002079
:101B600030B4C4680023A44630BC1A46192160472B
:101B700030B4C4680023A4460A4630BC162160472E
:101B800030B4C4680023A4460A4630BC152160471F
:101B900030B4C4681346A4460A4630BC17216047D7
:101BA000F8B50C46054614F8011B182924D00EDCA4
:101BB000152919D0162917D0172923D120788DF887
:101BC00000006A4601212846FFF7E2FF0AE01929D2
:101BD00012D0FE2916D122788DF80020292128461E
:101BE00000F058F9641CDEE722788DF80020EE68DA
:101BF00000232846B047F5E70023EE681A4628463A
:101C0000B047D0E7F8BD30B4C4680023A44630BC68
:101C10001A461821604700002DE9F041DFF8B08036
:101C200014460546A1F11402002698F800001F464C
:101C3000062A4AD2DFE802F02F03161B3E4310B1FA
:101C40002846FFF73EFF2846FFF751FF00212846B0
:101C5000FFF73FFF21462846FFF73BFF012088F8AA
:101C6000000029E021462846FFF733FF24E050B169
:101C70002846FFF726FF06E01821284600F010F955
:101C8000183CE4B21837182C3A46F5D821462846B5
:101C900000F006F90EE095F82400FF2802D1782024
:101CA00085F824002E693B4622462846B446BDE806
:101CB000F041604788F800600120BDE8F08100280D
:101CC000F8D02846FFF7FDFEF4E70020F5E7000016
:101CD0000C00002070B50023456904461A462821EF
:101CE000A8470023E5681A4614212046A847012288
:101CF0004B21204600F0CEF82068292102792046A9
:101D000000F0C8F800224B21204600F0C3F82068FC
:101D100029210279204600F0BDF801224B212046FE
:101D200000F0B8F82068292142792046BDE87040CB
:101D300000F0B0B80160897C80F822107047000084
:101D400070B50C46054600F019F888B9092C0BD07F
:101D50000A2C01D0002070BD2846FFF7BBFF0549C3
:101D60002846FFF71DFF03E003492846FFF7E2FF7F
:101D7000012070BDAA290000AC2A00002DE9F04125
:101D80001E46144605460B2908D00D290ED00E29F3
:101D90001DD00F2926D00020BDE8F0811AB12849B6
:101DA000FFF7FEFE49E02649491FF9E742B1244901
:101DB0000C31FFF7F5FE2868C07C85F822003CE076
:101DC0001F49491DFFF7ECFE2868807CF5E7FFF707
:101DD0001AFF81212846FFF7D3FE21462846FFF748
:101DE000C7FE27E0FFF70FFF707995F8221001EB8F
:101DF000C000C7B240212846FFF7C2FE102040EACB
:101E000017112846FFF7BCFE07F00F012846FFF721
:101E1000AFFEB07940F0B0012846FFF7A9FE307957
:101E20003268C006010E2846FFF7B2FE641E14F0A9
:101E3000FF04F4D12846FFF793FE0120ACE7000031
:101E4000892900000020704700B54D2919D00CDC0D
:101E50002B2916D004DC292915D02A290ED110E00F
:101E60002D290ED04C2909D10BE0002250290ED08B
:101E700051290CD052290AD0532908D0012180F8C9
:101E80002710012000BD1046FFF71CF9F9E780F884
:101E90002720F6E730B444690023A44630BC6047ED
:101EA0002DE9F04116460F460446FFF720FE40217B
:101EB0002046FFF70EFE256933463A461721204695
:101EC000A8472046BDE8F041FFF7FBBD002180F8A0
:101ED000261070474FF04070E1EE100A7047000086
:101EE000004000401000000000800540100000008D
:101EF000005000401100000000900540110000005B
:101F0000006000401200000000A005401200000028
:101F1000007000401300000000B0054013000000F6
:101F2000004002401400000000C005401400000002
:101F3000005002402E00000000D005402E0000009E
:101F4000006002402F00000000E005402F0000006C
:101F5000007002403000000000F00540300000003A
:101F600000D003404600000000000640460000008C
:101F70000010064047000000002006404800000016
:101F8000003006407F000000004006408000000056
:101F90000050064084000000006006408C000000F5
:101FA00000400040100000000080054010000000CC
:101FB000005000401100000000900540110000009A
:101FC000006000401200000000A005401200000068
:101FD000007000401300000000B005401300000036
:101FE000004002401400000000C005401400000042
:101FF000005002402E00000000D005402E000000DE
:10200000006002402F00000000E005402F000000AB
:10201000007002403000000000F005403000000079
:1020200000D00340430000000000064043000000D1
:10203000001006404400000000200640450000005B
:1020400000300640580000000040064059000000E3
:10205000005006405C000000006006406400000084
:10206000007006406C000000008006406D0000001B
:10207000009006407F0000000040004000800540C6
:1020800000500040009005400060004000A0054066
:102090000070004000B005400040024000C0054014
:1020A0000050024000D005400060024000E00540C2
:1020B0000070024000F0054000D0034000000640E0
:1020C0000010064000100640002006400020064098
:1020D0000030064000300640004006400040064008
:1020E0000050064000500640006006400060064078
:1020F00000700640007006400080064000800640E8
:10210000009006400090064000688909001C4E0EB1
:1021100040420F0000201C0080841E00008025002B
:10212000999E36000040380000093D0000803E00C6
:1021300000004B00404B4C0000204E00808D5B00A7
:1021400000C05D000080700000127A0000007D0079
:1021500080969800001BB7000080BB00C0E8CE004E
:10216000647ADA000024F4000000FA0080A812016A
:10217000002D310100366E0140787D0140000000E5
:1021800000000000000100003E0008000000000008
:1021900000010000A000000002000000000100009B
:1021A0003454010000000000000100002B70060004
:1021B00000000000000100002800000000000000F6
:1021C00000010000270001000000000000010000E5
:1021D000200000000000000000010000500000008E
:1021E00002000000000100001AAC00000000000026
:1021F0000001000017940900000000000001000029
:102200001698050000000000000100001400000006
:102210000000000000010000138008000000000022
:1022200000010000A0000000080000000001000004
:102230001000000000000000000100002800000065
:102240000200000000010000400000000400000047
:10225000000100006000000000000000000100001C
:102260005D000C00000000000001000050000000B4
:1022700000000000000100004E000200000000000D
:102280000001000041AC010000000000000100005E
:102290003C00000000000000000100003A8009003E
:1022A00000000000000100003000000000000000FD
:1022B00000010000280000000000000000010000F4
:1022C000270001000000000000010000236006005C
:1022D0000000000000010000216008000000000074
:1022E000000100001E0000000000000000010000CE
:1022F0001DC00400000000000001000050000000AC
:1023000002000000000100001800000000000000B2
:1023100000010000140000000000000000010000A7
:102320006000000004000000000100000024F40030
:1023300030003000005A6202910091000087930340
:10234000D200D20000B4C4041301130100E1F5056A
:1023500054015401000E2707950195015F02030205
:102360000404010305080F00FD0AFD0BFF01F6043C
:102370001C05FC2008F883CFFFBF00210CF8834F19
:10238000CEFB4EC9736600220DF8834F8CC2288C99
:1023900072FE57002313F883CF1A8551366C5118FB
:1023A00065C3168551CE192414F8834F8EC7A496A1
:1023B000A4493C27699225C539A7022515F8834F02
:1023C000CCA224AA14933CCE93302955A22C6705A5
:1023D0002614F8834F55A3300A93B812255112657D
:1023E0008D8BCE06270AF8838FCA729DFF03280EB5
:1023F000F8830FD7E3BC7724CF919C08290EF8838C
:102400008FE5489E2379CF799C332A0DF883CF7BC3
:10241000948AC3A846391F2B0DF883CF4B5E1C86C8
:1024200030AFF3002C0AF883CFFF6CAEC3002D0A47
:10243000F883CF5F869DBF002E09F883CFFF6C67BE
:10244000062F0FF8838F97F3388FF3388FF39C059F
:102450003015F8834F55A32C8CC2288CC2288CC20F
:102460002C4A756600310CF8834F8ED524EF7766C1
:1024700000320FF8834F1CB2300AF3B8F7616704DB
:102480003312F8834F1CB2308FD31DC94B6136E431
:10249000AC003411F8834F8FD5244DC228AB0D7397
:1024A0005E67053512F8834F1BB43C1FC22C47F200
:1024B0005216EECC003613F8834F1DE3BCB26951BF
:1024C000188551980D392B00370EF8834F1BF67283
:1024D0001EE7715EE7003816F8834F1CB2300AA37E
:1024E000301BB2300AA3300AB32167053913F883D1
:1024F0004F1CB2300AA330CAB4252F873B33003AB1
:102500000CF883CF4FB2CE22EBCC003B0CF883CF3C
:102510004FB2CE22CB75183C10F883CF1277CF91F3
:102520001CC9911CC919013D0CF883CFF761270E16
:102530003BCF003E10F8834FCC911CC9911CC9E3DE
:10254000EE5C003F0FF8834F1CB2300AF3B89D9247
:10255000E71C4017F8834F1DB3A8122589944495B2
:10256000A81295B61C197246004115F8834F95D5EF
:10257000288CB2300AA3610AA3300A7346004216BF
:10258000F8834F1BB4300AA3301AB4300AA3300AC0
:10259000A3416705430EF8834F1DB328EF1DC9C241
:1025A0009D154416F8834F1BC2AC188551188551F0
:1025B000188551960D393300450FF8834F1BA6BC83
:1025C0003E8479FBB03302460EF8834F1CA6BC3E16
:1025D0008479772E004711F8834F1DB3286F93C27B
:1025E00028CC8A43CE084816F8834F0BA3300AA3A1
:1025F000301AA6300AA3300AA3306704490CF883C6
:102600004F1CD4BC5F079D114A0CF8834F9EF3DE2C
:102610003AEECC004B14F8834F0BA330CA4A6192B8
:10262000AE519815A33067044C0BF8834FCBFBFBDE
:10263000B033024D14F8834F4B9334D194FEA9125A
:1026400055D2244DD29C0D4E17F8834F0BA330D298
:10265000A224AA442D5125CAA4300A7346004F165D
:10266000F8834F1CB2300AA3300AA3300AA3300A01
:10267000B32167055012F8834F1BB4300AA3300A08
:10268000A341CBDB39015118F8834F1CB2300AA3A8
:10269000300AA3300AA34A9469438EE824005214F6
:1026A000F8834F1BB4300AA3301AB428CC3A4661E1
:1026B000CE085314F8834F1CB230CA7344477424B5
:1026C0008FC26CC85901540CF8834F1B8630EFEF52
:1026D000CC005516F8834F0BA3300AA3300AA33061
:1026E0000AA3300AB32167055612F8834F4B93347F
:1026F00009B39ED2244D523D67065713F8834F4BC2
:102700009334892A5125AAF4A7AC7746005815F8C6
:10271000834F0BA3308BC22895D5288CB2300A7317
:102720004600590FF8834F4BA3AC31499338EFCE95
:102730000C5A0FF8834F1BF6B81ED7E37CD819014B
:102740005B0CF8838F0D61DEBF0F39115C14F883C9
:102750000FE53992E7489E23798EE43992E73400F9
:102760005D0CF8838F0D79FF71C889005E0DF883C9
:102770004FAE845994E6FC27005F0AF883CFFF75BB
:10278000D81901600CF8830FCA7A8EE4FCAF00619F
:1027900011F883CFFB90237936486194694BCE08BA
:1027A0006213F8834FCB5B362D0AA3300A232D4AE0
:1027B000765600630FF883CFFB908551DE980D3974
:1027C0002B006413F883CF92D7962893C2288CC22B
:1027D00028D3969C116511F883CFFB908551180D75
:1027E000539E2343CE0A660EF8834F1EA3304F0735
:1027F00035EFCE016712F883CFFB12653D8E39327B
:102800006461146643046813F8834FCB5B362D0A6A
:10281000A3300AA3300A734600690DF8834FCE73C4
:102820005CEF75D019016A0CF8834FAFC37BDF3AB8
:102830006E006B11F8834FCB1BA3AC14AE519815EF
:102840007346006C0BF8834FD5FBEBA033026D127F
:10285000F883CFF322B54495A81255A24A546703D2
:102860006E12F883CF73B26951188551188551984B
:1028700033026F12F883CFFB90855118855118856C
:10288000D990B3027013F883CF73B2695118855190
:10289000186951B2E565007112F883CFFB126552D9
:1028A0001885511865DA92B700720DF883CFB3B26C
:1028B0004959DE9D0B007312F883CFFB9085518E32
:1028C0000C391285D990B302740EF883CF9CA7837C
:1028D0009A774A7556007512F883CF731885511888
:1028E00085511865DA9233027611F883CF73188513
:1028F0005198456194CA3A33007711F883CF739A9F
:102900004495A8129514AD3B23007811F883CF733A
:1029100018855994AA51164661CE087912F883CFCA
:1029200073188559539AA4499C87499C027A0CF8DC
:1029300083CFF330F73EEC8C007B0FF8830FAB793D
:10294000ABAC23793BA2D3007C0AF8838FE6FDEF82
:1029500054007D0EF8830FE948DE8EC86ADEAA3384
:102960007E0DF8834F942A4A14E9FCAF0000000062
:1029700004FFFF0000000000E9190000ED1900004D
:102980001F1500001815AF19FF1815AE19FF1815FF
:10299000A115C819FF1815A015C019FF1815A11504
:1029A000C019FF1815A015C819FF1815AE15D516B2
:1029B0008015A8163F15D316001540158D16141551
:1029C00020160015A115C815DA1612158116CF1597
:1029D000D916F115DB1640152E15A415A619FF18EA
:1029E00015AE15D5168015A8163F15D3160015403F
:1029F000158D16141520160015A115C815DA161216
:102A0000158116EF15D916A115DB1600152E15A484
:102A100015A619FF1815AE15D5168015A8163F1561
:102A2000D316001540158D16141520160015A11586
:102A3000C815DA1602158116CF15D916F115DB1651
:102A400040152E15A415A619FF1815AE15A415D5F9
:102A5000165015A8163F15D31600154015AD168B48
:102A600015D9162215DB16351532158116FF15A658
:102A700015DA161219FF1815AE15D5168015A816F9
:102A80003F15D316001540158D1614152016001588
:102A9000A115C015DA1612158116CF15D916F11524
:102AA000DB1640152E15A415A619FF000001140A07
:102AB0006464323200127A00000428961008000084
:102AC000800040000001140A6464323200093D00B5
:102AD000000428961008020280004000FC2A000032
:102AE0000000002014000000A8020000102B0000CD
:102AF0001400002014070000C402000000000000C1
:102B000000000000000000000000000000000000C5
:040000050000026D88
:00000001FF
