:020000040000FA
:10000000D00800205D0300006503000067030000C6
:10001000690300006B0300006D0300000000000096
:100020000000000000000000000000006F0300005E
:10003000710300000000000073030000750300005E
:1000400077030000790300007B0300007D030000BC
:100050007F0300008103000083030000850300008C
:1000600087030000890300008B0300008D0300005C
:100070008F0300009103000093030000950300002C
:1000800097030000990300009B0300009D030000FC
:100090009F030000A1030000A3030000A5030000CC
:1000A000A7030000A9030000AB030000AD0300009C
:1000B000AF030000B1030000B3030000B50300006C
:1000C000B7030000B9030000BB030000BD0300003C
:1000D000BF030000C1030000C3030000C50300000C
:1000E000C7030000C903000000000000CB030000AC
:1000F000CD030000CF030000D1030000D3030000B4
:10010000D5030000D7030000D9030000DB03000083
:100110000000000000000000DD030000DF0300001D
:10012000E1030000E3030000E5030000E703000033
:10013000E9030000EB030000ED030000EF03000003
:1001400000000000000000000000000000000000AF
:10015000F1030000F3030000F5030000F7030000C3
:10016000000000000000000000000000000000008F
:10017000000000000000000000000000000000007F
:10018000000000000000000000000000000000006F
:10019000000000000000000000000000000000005F
:1001A000000000000000000000000000000000004F
:1001B000F9030000FB030000FD030000FF03000043
:1001C000010400000304000005040000070400000F
:1001D000090400000B0400000D0400000F040000DF
:1001E00011040000130400001504000000000000CA
:1001F0000000000017040000190400001B040000A8
:100200001D0400001F0400000000000000000000AA
:10021000210400002304000025040000270400003E
:10022000290400002B0400002D0400002F0400000E
:1002300031040000330400003504000037040000DE
:10024000390400003B0400003D0400003F040000AE
:10025000410400004304000045040000470400007E
:10026000490400004B0400004D04000000F002F8B7
:1002700000F04CF80AA090E8000C82448344AAF1F4
:100280000107DA4501D100F041F8AFF2090EBAE8F2
:100290000F0013F0010F18BFFB1A43F001031847BA
:1002A0005C0E00007C0E00000A4410F8014B14F0B4
:1002B0000F0508BF10F8015B240908BF10F8014BB7
:1002C0006D1E05D010F8013B6D1E01F8013BF9D100
:1002D000641E03D0641E01F8015BFBD19142E4D39C
:1002E000704700000023002400250026103A28BF94
:1002F00078C1FBD8520728BF30C148BF0B60704798
:100300001FB500F0F5FC1FBD10B510BD00F0B3F82F
:100310001146FFF7F5FF00F0BFFC00F0D1F803B481
:10032000FFF7F2FF03BC00F0D9F80000EFF31080F4
:1003300072B67047EFF310807047EFF3108062B62B
:10034000704730BF704780F311887047EFF311801A
:10035000704700000138FDD1704700003F488047DA
:100360003F480047FEE7FEE7FEE7FEE7FEE7FEE761
:10037000FEE7FEE7FEE7FEE7FEE7FEE7FEE7FEE755
:10038000FEE7FEE7FEE7FEE7FEE7FEE7FEE7FEE745
:10039000FEE7FEE7FEE7FEE7FEE7FEE7FEE7FEE735
:1003A000FEE7FEE7FEE7FEE7FEE7FEE7FEE7FEE725
:1003B000FEE7FEE7FEE7FEE7FEE7FEE7FEE7FEE715
:1003C000FEE7FEE7FEE7FEE7FEE7FEE7FEE7FEE705
:1003D000FEE7FEE7FEE7FEE7FEE7FEE7FEE7FEE7F5
:1003E000FEE7FEE7FEE7FEE7FEE7FEE7FEE7FEE7E5
:1003F000FEE7FEE7FEE7FEE7FEE7FEE7FEE7FEE7D5
:10040000FEE7FEE7FEE7FEE7FEE7FEE7FEE7FEE7C4
:10041000FEE7FEE7FEE7FEE7FEE7FEE7FEE7FEE7B4
:10042000FEE7FEE7FEE7FEE7FEE7FEE7FEE7FEE7A4
:10043000FEE7FEE7FEE7FEE7FEE7FEE7FEE7FEE794
:10044000FEE7FEE7FEE7FEE7FEE7FEE7FEE7000069
:1004500004480549034A054B704700003D0A000067
:100460006D020000D0060020D0080020D006002039
:10047000704770477047754600F02CF8AE4605008F
:100480006946534620F00700854618B020B5FFF7AF
:10049000DFFFBDE820404FF000064FF000074FF0AF
:1004A00000084FF0000B21F00701AC46ACE8C00992
:1004B000ACE8C009ACE8C009ACE8C0098D4670479B
:1004C00010B50446AFF300802046BDE81040FFF7AA
:1004D00026BF0000004870476C0600200149182024
:1004E000ABBEFEE726000200704702F001031BB11D
:1004F000D0F800340B4302E0D0F800348B43C0F84E
:10050000003402F002031BB1D0F820340B4302E0A8
:10051000D0F820348B43C0F820347047F0B5002465
:1005200016E00125A5400D4085B1D0F8C45F6700F5
:100530000326BE40B543C0F8C45FD0F8C45F67006F
:10054000C2F34116BE403543C0F8C45F651CECB22F
:10055000082CE6DB02F001051DB1D0F800550D4373
:1005600002E0D0F800558D43C0F8005502F00205B6
:100570001DB1D0F804550D4302E0D0F804558D4369
:10058000C0F8045502F004051DB1D0F808550D431C
:1005900002E0D0F808558D43C0F8085502F0080570
:1005A0001DB1D0F818550D4302E0D0F818558D4311
:1005B000C0F8185502F010051DB1D0F83C550D4398
:1005C00002E0D0F83C558D43C0F83C5503F00105DE
:1005D0001DB1D0F80C550D4302E0D0F80C558D43F9
:1005E000C0F80C5503F002051DB1D0F810550D43AD
:1005F00002E0D0F810558D43C0F8105503F0040503
:100600001DB1D0F814550D4302E0D0F814558D43B8
:10061000C0F8145503F008051DB1D0F81C550D4362
:1006200002E0D0F81C558D43C0F81C5503F400754A
:100630001DB1D0F844550D4302E0D0F844558D4328
:10064000C0F8445503F440751DB1D0F840550D4332
:1006500002E0D0F840558D43C0F840551BB9D0F8A2
:1006600028550D4302E0D0F828558D43C0F8285591
:10067000F0BD002303EB8103C2507047042806D16C
:100680001949096841F48031174A11602BE00528A7
:1006900006D11549096841F40031134A116022E07E
:1006A000062806D11049096841F480210E4A1160DC
:1006B00019E00F2808D14FF0E021096941F002014B
:1006C0004FF0E02211610EE010280CD3A0F11001D0
:1006D00001F01F0201219140A0F110025209034BC9
:1006E00053F822201160704724ED00E0B80D00009F
:1006F00010B5FFF722FE08B1012010BD0020FCE775
:1007000010B50A4683080A4C54F823301968830749
:10071000DC0EFF23A34099438307DB0E02FA03F3A9
:1007200019438308024C54F82330196010BD0000AF
:100730001C0D000030B502460B4C24680B4DAC423A
:100740000ED0094C2368002005E053F82040074DE7
:1007500045F82040401C9B28F7D3044C024D2C60E8
:10076000024C44F8221030BD08ED00E000040020E7
:10077000F0B55048036E026F02F0004010B102F075
:10078000700001E003F03000202811D003DC38B104
:10079000102815D10AE030280CD0702810D10CE0B8
:1007A0004548C3F3841750F827100BE0434909E08C
:1007B000434907E047F2305104E04FF4004101E0C3
:1007C0000020F0BD00BF4FF0FF3402F0004010B138
:1007D00002F4006028B102F0004090BB03F4006016
:1007E00078BB384805683348D0F8646106F01F00CC
:1007F000401CC6F304277F1C10FB07F04000B1FB30
:10080000F0F1C5F309004843C5F389274F4300EBD6
:10081000972143F480032748006900F47040B0F545
:10082000804F13D006DCB0F5005F0BD0B0F5405F11
:1008300012D109E0B0F5E04F0AD0B0F5104F0BD15E
:1008400008E00BE0204C08E0204C06E0204C04E0DF
:10085000204C02E0204C00E000BF00BF03F4800009
:1008600018B302F00040D8B102F0804090B102F01D
:10087000004010B102F4006028B102F0004048B915
:1008800003F4006030B94F00C2F38650401CB7FB40
:10089000F0F10AE0C2F3C550401CB1FBF0F104E0F6
:1008A000C3F3C350401CB1FBF0F18C4200D221468F
:1008B000084686E700E00F40080E00000024F40020
:1008C00000093D0060E10F4000B4C40480F0FA026A
:1008D000005A620240787D01002D31012DE9F0417E
:1008E00006464448046E056F44F4006424F4800412
:1008F00045F400650466056704F00100D8B106F010
:100900000100C0B966F0010004404FF4807039491D
:100910008865084604664FF4002702E07F1E07B989
:1009200005E03448006D00F480700028F6D000BF68
:100930000FB9BDE8F08124F4FE6406F4FE600443C0
:100940002D4805402C49A13106EA0100054306F077
:10095000080045EAC00527480466056724F40054EA
:1009600006F40050044325F4005506F400500543F6
:1009700040202049886505F0004018B10846056709
:10098000046602E01B48046605671C480440C14336
:1009900006EA0100044325F0FC5506F0FC5005432F
:1009A00006F0804040B144F4800425F480051449E9
:1009B00006EA0100054301E025F0804506F40060E9
:1009C00080B94FF4004706E00E48006800F00100CF
:1009D00000B102E07F1E002FF6D100BF24F40064B6
:1009E00025F400650348046605671020FFF7B2FC94
:1009F00000BF9EE700E00F408FFFFF7FFEFF3FF844
:100A00000000404068E10F4010B50121C0F307220B
:100A1000094B1A4402F0704242F00072C0F30723FF
:100A2000054C2344C3F3130342EA4312C3B242EA20
:100A30008302116010BD000000E60F401B490968E9
:100A400041F47001194A116019491A4A11671A498B
:100A500011661A4911661A491167002000E0401C0E
:100A6000B0F57A7FFBD31749124A11661649116710
:100A7000002000E0401CB0F57A7FFBD313490D4AFB
:100A8000116600BF0B49096D01F040014029F9D101
:100A90000F49084A11664FF0C0711167002000E04D
:100AA000401C42F210718842FAD3704788ED00E092
:100AB0001028800700E00F40D13A8E07422D9E019A
:100AC00000288001420D9E0100088001420DDE01D8
:100AD0004205DE0110B501210D4800F06FF8044613
:100AE00021460B4800F051F80A480068401C0949AB
:100AF000086008460068B0F57A7F07D100200860DA
:100B00000548007880F001000349087010BD00001E
:100B1000000003400400002000000020C26840F2F2
:100B200001139A43C2600A0E0260114A1268114B07
:100B30001A40114B9A4211D1CAB201F4702342EA11
:100B4000131242F40072426001F47002C1F30723F1
:100B500043EA122242F40072826008E0CAB242F410
:100B600000724260C1F3072242F400728260704753
:100B700000E00F400000FF7000000A10C26840F261
:100B800001130B401A43C26070474162704782698B
:100B90000A43826170472DE9F04105460E4614462E
:100BA0003146284600F04CF8074621463846FFF704
:100BB000C1FD3846FFF762FDBDE8F081024609B18C
:100BC000106A7047D069FCE7CBB203B1826201F4CE
:100BD0007F4303B1C262704710B51548FFF714FF99
:100BE00014491548FFF79AFFFFF7C2FD4FF47A71D9
:100BF000B0FBF1F0441E2246FF210F48FFF7E4FF4F
:100C00000E4AFF210C48FFF7C6FF01210A48FFF7F3
:100C1000BEFF00212320FFF773FD2320FFF72EFDE9
:100C2000FFF766FDFF210448FFF7A8FF10BD000095
:100C3000000400F03200000400000340D50A000068
:100C4000F0B503460C460F4D0C260F4800680F4FB9
:100C500038400F4FB84201D10E4D082600210DE05B
:100C600055F83100984208D105EBC1004268B4F54F
:100C70007F4F00D1521C1046F0BD491CB142EFD34A
:100C80000020F9E75C10000000E00F400000FF705A
:100C900000000A10BC1000001148FFF71FFE1148A9
:100CA000FFF7B2FE012208210F48FFF71EFC0823C0
:100CB000012219460C48FFF731FCFFF78DFF0DE0CC
:100CC0000A48007828B9082211460748FFF7D1FCE6
:100CD00004E0002208210448FFF7CBFCF0E7000005
:100CE0004005C001050800F000500240000000204F
:100CF0004FF04070E1EE100A70470000000700005E
:100D000000060000000500000004000000030000D1
:100D100000020000000100000000000000000000D0
:100D200018ED00E01CED00E020ED00E000E400E044
:100D300004E400E008E400E00CE400E010E400E07B
:100D400014E400E018E400E01CE400E020E400E02B
:100D500024E400E028E400E02CE400E030E400E0DB
:100D600034E400E038E400E03CE400E040E400E08B
:100D700044E400E048E400E04CE400E050E400E03B
:100D800054E400E058E400E05CE400E060E400E0EB
:100D900064E400E068E400E06CE400E070E400E09B
:100DA00074E400E078E400E07CE400E080E400E04B
:100DB00084E400E088E400E000E100E004E100E019
:100DC00008E100E00CE100E010E100E080E100E07B
:100DD00084E100E088E100E08CE100E090E100E0E7
:100DE00000E200E004E200E008E200E00CE200E0E3
:100DF00010E200E080E200E084E200E088E200E04F
:100E00008CE200E090E200E040420F0000201C0075
:100E100080841E0000802500999E36000040380026
:100E200000093D0000803E0000004B00404B4C009C
:100E300000204E00808D5B0000C05D0000807000CF
:100E400000127A0000007D0080969800001BB70019
:100E50000080BB00C0E8CE00647ADA000024F40011
:100E60000000FA0080A81201002D310100366E0149
:100E700040787D01400000000000000000010000FB
:100E80003E0008000000000000010000A00000007B
:100E900002000000000100003454010000000000C6
:100EA000000100002B70060000000000000100009F
:100EB00028000000000000000001000027000100E1
:100EC0000000000000010000200000000000000001
:100ED00000010000500000000200000000010000BE
:100EE0001AAC000000000000000100001794090087
:100EF000000000000001000016980500000000003E
:100F000000010000140000000000000000010000CB
:100F1000138008000000000000010000A000000095
:100F200008000000000100001000000000000000A8
:100F30000001000028000000020000000001000085
:100F400040000000040000000001000060000000FC
:100F500000000000000100005D000C000000000027
:100F6000000100005000000000000000000100002F
:100F70004E000200000000000001000041AC010032
:100F800000000000000100003C0000000000000024
:100F9000000100003A80090000000000000100008C
:100FA00030000000000000000001000028000000E8
:100FB0000000000000010000270001000000000008
:100FC0000001000023600600000000000001000096
:100FD0002160080000000000000100001E00000069
:100FE00000000000000100001DC00400000000001F
:100FF000000100005000000002000000000100009D
:1010000018000000000000000001000014000000B3
:10101000000000000001000060000000040000006B
:10102000000100000024F40030003000005A620289
:101030009100910000879303D200D20000B4C40451
:101040001301130100E1F50554015401000E2707B7
:101050009501950100688909001C4E0E00000340AF
:101060002300000000100340250000000020034082
:101070002700000000300340330000000040034020
:1010800056000000005003406C0000000060034068
:101090006E000000007003407000000000C00440BB
:1010A0007200000000D004407400000000E0044022
:1010B0007600000000F004407800000000000340CB
:1010C0002300000000100340250000000020034022
:1010D00027000000003003403300000000400340C0
:1010E0004F000000005003405100000000000E407F
:1010F0007200000000100E40740000001C1100007F
:10110000000000206C060000A80200002C11000066
:101110006C06002064020000E402000001FF01FFF1
:0C11200001FF01FF01FF01FF0179000049
:040000050000026D88
:00000001FF
